:200000000C9447050C946F050C946F050C946F050C946F050C946F050C946F050C946F0568
:200020000C946F050C946F050C946F050C946F050C946F050C946F050C946F050C946F0520
:200040000C9423160C946F050C94F1150C94CB150C946F050C946F050C946F050C946F053D
:200060000C946D160C946F05000103070F1F3F7F0080C0E0F0F8FCFE00000000003E5B4F68
:200080005B3E3E6B4F6B3E1C3E7C3E1C183C7E3C181C577D571C1C5E7F5E1C00183C18008E
:2000A000FFE7C3E7FF0018241800FFE7DBE7FF30483A060E2629792926407F050507407F4A
:2000C00005253F5A3CE73C5A7F3E1C1C08081C1C3E7F14227F22145F5F005F5F06097F01B4
:2000E0007F006689956A606060606094A2FFA29408047E040810207E201008082A1C08086E
:200100001C2A08081E101010100C1E0C1E0C30383E3830060E3E0E06000000000000005FF8
:2001200000000007000700147F147F14242A7F2A1223130864623649562050000807030013
:20014000001C2241000041221C002A1C7F1C2A08083E0808008070300008080808080000F0
:2001600060600020100804023E5149453E00427F400072494949462141494D331814127FAA
:200180001027454545393C4A49493141211109073649494936464949291E000014000000DA
:2001A0004034000000081422411414141414004122140802015909063E415D594E7C1211DC
:2001C000127C7F494949363E414141227F4141413E7F494949417F090909013E41415173A4
:2001E0007F0808087F00417F41002040413F017F081422417F404040407F021C027F7F04E9
:2002000008107F3E4141413E7F090909063E4151215E7F09192946264949493203017F0152
:20022000033F4040403F1F2040201F3F4038403F631408146303047804036159494D43007A
:200240007F4141410204081020004141417F040201020440404040400003070800205454B5
:2002600078407F284444383844444428384444287F385454541800087E090218A4A49C787B
:200280007F0804047800447D40002040403D007F1028440000417F40007C047804787C0886
:2002A0000404783844444438FC1824241818242418FC7C08040408485454542404043F4413
:2002C000243C4040207C1C2040201C3C4030403C44281028444C9090907C4464544C4400D6
:2002E000083641000000770000004136080002010204023C2623263C1EA1A161123A40400A
:20030000207A385454555921555579412254547842215554784020545579400C1E527212A8
:200320003955555559395454545939555454580000457C410002457D420001457C407D1277
:2003400011127DF0282528F07C545545002054547C547C0A097F4932494949323A4444440A
:200360003A324A4848303A4141217A3A42402078009DA0A07D3D4242423D3D4040403D3C4C
:2003800024FF2424487E4943662B2FFC2F2BFF0929F620C0887E09032054547941000044AB
:2003A0007D413048484A32384040227A007A0A0A727D0D19317D2629292F28262929292608
:2003C00030484D4020380808080808080808382F10C8ACBA2F102834FA00007B00000814AF
:2003E0002A142222142A14085500550055AA55AA55AAFF55FF55FF000000FF00101010FFA5
:2004000000141414FF001010FF00FF1010F010F0141414FC001414F700FF0000FF00FF140B
:2004200014F404FC141417101F10101F101F1414141F00101010F0000000001F10101010FE
:200440001F10101010F010000000FF101010101010101010FF10000000FF140000FF00FF8E
:2004600000001F10170000FC04F414141710171414F404F40000FF00F71414141414141446
:20048000F700F7141414171410101F101F141414F4141010F010F000001F101F0000001FD8
:2004A00014000000FC140000F010F01010FF10FF141414FF141010101F00000000F010FF5D
:2004C000FFFFFFFFF0F0F0F0F0FFFFFF0000000000FFFF0F0F0F0F0F3844443844FC4A4A5E
:2004E0004A347E02020606027E027E0263554941633844443C04407E201E2006027E0202A3
:2005000099A5E7A5991C2A492A1C4C7201724C304A4D4D303048784830BC625A463D3E49F8
:200520004949007E0101017E2A2A2A2A2A44445F444440514A444040444A51400000FF012B
:2005400003E080FF000008086B6B083612362436060F090F060000181800000010100030C0
:2005600040FF0101001F01011E00191D1712003C3C3C3C0000000000000000002400270061
:200580002A00DB40A4A62EAF2000A1C8D300408DAED580A800000000250028002B000000A3
:2005A000600000000000000000000000000000E00000000000000000000000000001E0001A
:2005C00000000000000000000000000001F00000000000000000000000000003F000000037
:2005E0000000000000000000000007F00000000000000000000000000007F8000000000005
:2006000000000000000000000FF800000003C0007E000001E0007F0FF800000003C000FE6A
:20062000000001E000FFEFF800000003C000FE000001E000FFFFF800000003C000F00000A8
:20064000000F007FFE7FC0000003C000F00000000F003FFE7FF83FF1FBCFFCFEF3BC3DEF8A
:20066000E01FFE7FFF7FFBFFDFFEFEFFBC3DEFE01FC6FFFF7FFBFFDFFEFEFFBC3DEFE00FD7
:20068000E3C7FE787BC3DE1EF0FFBC3DEF0007FF87FC787BC3DE1EF0F83C3DEF0001FFFF9F
:2006A000F0007BC3C01EF0F03C3DEF0001F37FE03FFBC3CFFEF0F03C3DEF0003E33F807F5D
:2006C000FBC3DFFEF0F03C3DEF0007E73C00787BC3DE1EF0F03C3DEF0007FFBE00787BC399
:2006E000DE1EF0F03C3DEF0007FFFE00787BC3DE1EF0F03C3DEF000FFFFE007FFBFFDFFE56
:20070000F0F03FFDEFE00FFFFF007FFBFFDFFEF0F03FFDEFE00FF9FF003E79F9CF9EF0F09C
:200720001F3DE7E01FF1FF0000000000000000000000001F80FF007FFFFFFFFFFFFFFFFF72
:20074000FFE01C007F007FFFFFFFFEB46D888D18E000001F007FFFFFFFFE95AD7DB577E013
:2007600000000F007FFFFFFFFEA5AD9D8D19E0000006007FFFFFFFFEB5ADEDB57EE0000099
:200780000000000180000000000000000000038000000000000000000007C000000000008E
:2007A0000000000007C00000000000000000000FC00000000000000000001FE000000000A4
:2007C00000000000001FE00000000000000000003FE00000000000000000003FF0000000CC
:2007E0000000000000007FF0000000000000001FF87FF0000000000000003FFE7FF0000058
:2008000000000000003FFF7FF0000000000000001FFFFBE0000000000000000FFFF9FFC06C
:200820000000000000000FFFF9FFF800000000000007FFF1FFFF00000000000003FC73FF54
:20084000FF80000000000001FE3FFFFF80000000000000FF1E0FFF000000000000007FFEB5
:200860001FFC000000000000003FFFFFF8000000000000000FDFFFE0000000000000001F3C
:2008800019FFC0000000000000003F3CFF00000000000000007E7CF8000000000000000014
:2008A0007FFE7C0000000000000000FFFFFC0000000000000000FFFFFE0000000000000049
:2008C00000FFFFFE0000000000000001FFEFFE0000000000000001FFCFFE00000000000062
:2008E0000003FF07FE0000000000000003FC07FE0000000000000003F003FE0000000000F9
:200900000000018000FE000000000000000000007E000000000000000000003E000000009C
:200920000000000000000C000000000000078000FC000003C0000000078001FC000003C01E
:20094000000000078001FC000003C0000000078001E00000001E000000078001E000000062
:200960001E007FE3F79FF9FDE7787BDFC0FFF7FFBFFDFDFF787BDFC0FFF7FFBFFDFDFF788E
:200980007BDFC0F0F787BC3DE1FF787BDE00F0F787BC3DE1F0787BDE0000F787803DE1E020
:2009A000787BDE007FF7879FFDE1E0787BDE00FFF787BFFDE1E0787BDE00F0F787BC3DE128
:2009C000E0787BDE00F0F787BC3DE1E0787BDE00F0F787BC3DE1E0787BDE00FFF7FFBFFDC3
:2009E000E1E07FFBDFC0FFF7FFBFFDE1E07FFBDFC07CF3F39F3DE1E03E7BCFC0000000004B
:200A000000000000000000FFFFFFFFFFFFFFFFFFFFC0FFFFFFFFFD68DB111A31C0FFFFFFCB
:200A2000FFFD2B5AFB6AEFC0FFFFFFFFFD4B5B3B1A33C0FFFFFFFFFD6B5BDB6AFDC0000079
:200A40000000230026002900040404040404040402020202020203030303030301020408D7
:200A60001020408001020408102001020408102000000008000201000003040700000000EF
:200A8000000000002200FF2100008C17F81E11241FBECFEFD8E0DEBFCDBF12E0A0E0B1E0A7
:200AA000E6E9F6E402C005900D92A630B107D9F723E0A6E0B2E001C01D92A33DB207E1F73D
:200AC00015E0C6E4D5E004C02197FE010E940722C534D107C9F70E9427180C943E230C9469
:200AE0000000089508950895AF92BF92CF92DF92EF92FF920F931F93CF93DF936C017B0198
:200B00008B01040F151FEB015E01AE18BF08C017D10759F06991D601ED91FC910190F08154
:200B2000E02DC6010995892B79F7C501DF91CF911F910F91FF90EF90DF90CF90BF90AF90CF
:200B40000895FC01538D448D252F30E0842F90E0821B930B541710F0CF96089501970895E6
:200B6000FC01918D828D981761F0A28DAE0FBF2FB11D5D968C91928D9F5F9F73928F90E0D3
:200B800008958FEF9FEF0895FC01918D828D981731F0828DE80FF11D858D90E008958FEF64
:200BA0009FEF0895FC01918D228D892F90E0805C9F4F821B91098F739927089586ED92E0D3
:200BC0000E94D20521E0892B09F420E0822F089580E090E0892B29F00E94DE0581110C9448
:200BE00000000895FC01A48DA80FB92FB11DA35ABF4F2C91848D90E001968F739927848F08
:200C0000A689B7892C93A089B1898C91837080648C93938D848D981306C00288F389E02D7B
:200C200080818F7D80830895EF92FF920F931F93CF93DF93EC0181E0888F9B8D8C8D98137C
:200C40001AC0E889F989808185FF15C09FB7F894EE89FF896083E889F989808183708064DE
:200C600080839FBF81E090E0DF91CF911F910F91FF90EF900895F62E0B8D10E00F5F1F4FEF
:200C80000F731127E02E8C8D8E110CC00FB607FCFACFE889F989808185FFF5CFCE010E94CA
:200CA000F205F1CFEB8DEC0FFD2FF11DE35AFF4FF0829FB7F8940B8FEA89FB89808180627D
:200CC000CFCFCF93DF93EC01888D8823B9F0AA89BB89E889F9898C9185FD03C0808186FDFC
:200CE0000DC00FB607FCF7CF8C9185FFF2CF808185FFEDCFCE010E94F205E9CFDF91CF9106
:200D00000895833081F028F4813099F08230A9F008958730A9F08830C9F08430B1F48091A9
:200D200080008F7D03C0809180008F7780938000089584B58F7784BD089584B58F7DFBCF71
:200D40008091B0008F778093B00008958091B0008F7DF9CF1F93CF93DF93282F30E0F901F0
:200D6000E059F54F8491F901E45AF54FD491F901E85BF54FC491CC23A9F0162F81110E9429
:200D80008106EC2FF0E0EE0FFF1FEC56FA4FA591B4918FB7F894EC91111108C0D095DE2321
:200DA000DC938FBFDF91CF911F910895DE2BF8CFCF93DF9390E0FC01E45AF54F2491885B2E
:200DC000954FFC0184918823D1F090E0880F991FFC01E858FA4FA591B491FC01EC56FA4F69
:200DE000C591D491623071F49FB7F8943C91822F809583238C93E8812E2B28839FBFDF91CC
:200E0000CF9108958FB7F894EC912E2B2C938FBFF6CF2091000190E4299F900111248E50C9
:200E2000822B80937C0080917A00806480937A0080917A0086FDFCCF80917800909179007E
:200E400008953FB7F8948091BB029091BC02A091BD02B091BE0226B5A89B05C02F3F19F07B
:200E60000196A11DB11D3FBFBA2FA92F982F8827BC01CD01620F711D811D911D43E0660FAC
:200E8000771F881F991F4A95D1F708958F929F92AF92BF92CF92DF92EF92FF924B015C01A8
:200EA0000E9421076B017C010E9421076C197D098E099F09683E734081059105A8F321E05A
:200EC000821A9108A108B10888EEC80E83E0D81EE11CF11C81149104A104B10429F7FF9099
:200EE000EF90DF90CF90BF90AF909F908F9008950895FC016370668B848195812681378154
:200F0000613039F0633029F091878087338722870895318720879387828708952F923F929B
:200F20004F925F926F927F928F929F92AF92BF92CF92DF92EF92FF920F931F93CF93DF93DD
:200F4000CDB7DEB76A970FB6F894DEBF0FBECDBF9A8F898F7A8369834A01D22E18870F838A
:200F60003701BC2CDC0159962D913C915A972115310509F015C118968D919C9119976817A6
:200F800079070CF0D7C11A968D919C91481759070CF0D0C14C2C512CB6E0CB9E600D711D07
:200FA00011247C876B87161617060CF0C3C1EA2DF0E0FA87E98793E0EE0FFF1F9A95E1F7D1
:200FC000F88BEF87CF01840F951F181619060CF0B1C1A98DBA8D58968C91811104C0BFEABF
:200FE000BD1508F4D394A98DBA8DED91FC9111970284F385E02DCD010995B5E0DB9EC00146
:201000001124E981FA81FC83EB83312C212C9C0128583F4F388F2F8B4A2D50E05E8B4D8B8B
:20102000EF89F88DE20DF31D44919E828D82D12CC12C69817A81620D731D7A8B698B842F36
:2010400090E09C8B8B8BE98DFA8DA081B18140FF82C0F1E0BF126FC0AF126DC01C96ED9123
:20106000FC912F813885A4014C0D5D1D69897A89898D9A8D0995EB89FC89F595E7954E2FB2
:201080005FEFC51AD50A6D817E818D899E89680F791F7E836D8398E0C916D10481F6AFEFD9
:2010A0002A1A3A0AEB81FC81E40DF51DFC83EB83F5E02F16310409F0B3CF2F81388526155D
:2010C0003705B9F0A98DBA8DED91FC91B1E0BB1257C0AB1255C069817A816B5F7F4F008857
:2010E000F189E02D830128E030E0A401898D9A8D0995A98DBA8DED91FC9111970688F7890F
:20110000E02DCD016A960FB6F894DEBF0FBECDBFDF91CF911F910F91FF90EF90DF90CF90B1
:20112000BF90AF909F908F907F906F905F904F903F902F9009941E96ED91FC91EF80F88422
:2011400009851A8592014D815E816B817C81898D9A8D099590CF2F8138852615370509F41E
:201160008ACF31E0B31207C0A31205C01C96ED91FC91930178CF1E96ED91FC917301E0CF85
:201180006B857C85641975090684F785E02D73010F8518899201A401898D9A8D0995A9CF1C
:2011A000F90134969491329745915491D91AB7E0DB9E400D511D1124F901259134913C8B93
:2011C0002B8BFA0125903490FA013296749031963491398B329664903196449041E04C15F5
:2011E00018F04A1508F07FC0662D062C000C770B7C836B83842D042C000C990B9E838D834F
:20120000A98DBA8DED91FC9111970284F385E02DCD010995512CD12CC12CEA2DF0E0FA8758
:20122000E9872B2D30E03C872B87A401440D511D47FC5A95588F4F8B69817A81660D711D24
:2012400067FC7A957E876D877989C71608F051CF2C2D30E04D815E81420F531FA985BA85E6
:201260004A9FC0014B9F900D5A9F900D1124FC01E80DF91DF88BEF87852D612C4F89588D75
:20128000420F531F5E8B4D8B671408F050C044244394480E877041F4C1010196EB89FC8934
:2012A000E20DF31DD4901C01D7FE19C0A98DBA8DED91FC91662D70E0B1E0BB1219C0AB12A1
:2012C00017C02D853E85620F731F0484F585E02D2F8138854D895E89898D9A8D0995DD0CC2
:2012E0006394842DD1CF1E821D821C821B8288CF4B815C81640F751FAB85BC856A9FC001EA
:201300006B9F900D7A9F900D112469817A81680F791F0684F785E02DEF80F88409851A851C
:201320009D014F855889898D9A8D0995D8CF570CC3948ACF6A960FB6F894DEBF0FBECDBF7E
:20134000DF91CF911F910F91FF90EF90DF90CF90BF90AF909F908F907F906F905F904F90D9
:201360003F902F9008958F929F92AF92CF92EF92FF920F931F93CF93DF93EC01262F898DBC
:201380009A8D009709F051C06A30D1F41D861C868D8948E0849F900111248E859F85820FF2
:2013A000931F9F878E8781E090E0DF91CF911F910F91FF90EF90CF90AF909F908F900895B8
:2013C0006D3089F3CC88AD888F898823C1F08C859D8536E0C39E800D911D11244885598532
:2013E0004817590764F44E855F851D861C8638E0A39EC0011124840F951F9F878E87EA8897
:20140000FB88088919894E855F856C857D85CE010E948E072C898C859D8546E0249F800D08
:20142000911D11249D878C87BECF6A3069F41D861C86FC013896E4912D898E859F85E29F1B
:20144000800D911D1124ADCF6D3009F4ACCFFC0134963491631708F4A6CF3296E491E617DA
:2014600008F4A1CFFC01329685909490462F431B342F47E0349F800C911C1124F4013296A7
:2014800034913196E4913323A9F1EE2399F1CC88F4013596E491AD884F89442301F10E2E95
:2014A000000CFF0BE30FF11DCE9EA001CF9E500D11246C857D85460F571F688579856417E6
:2014C00075076CF44E855F851D861C86FC013896E491AE9E400D511D11245F874E87EA888B
:2014E000FB88088919894E855F856C857D85CE010E948E07F4013496E4912C898C859D856A
:20150000E29F800D911D11248DCF6F927F928F929F92AF92BF92CF92DF92EF92FF920F9302
:201520001F93CF93DF93EC016B015A0139014801E881F9810284F385E02D0995E881F9817F
:201540000288F389E02D87019301A501B601CE010995A501480D591D41505109E881F98153
:201560000288F389E02D9301B601CE010995E881F9810088F189E02D9401A501B601CE01ED
:201580000995C60CD71CB60161507109E881F9810088F189E02D9401A501CE010995E88103
:2015A000F9810688F789E02DCE01DF91CF911F910F91FF90EF90DF90CF90BF90AF909F900E
:2015C0008F907F906F9009946F927F928F929F92AF92BF92CF92DF92EF92FF920F931F9313
:2015E000CF93DF935C01EB016A01490138018701DC01ED91FC916217730719F5641675067A
:201600002CF0962D872D3A01C92ED82E9601261937092F5F3F4F048CF58DE02DA301BE014B
:20162000C5010995DF91CF911F910F91FF90EF90DF90CF90BF90AF909F908F907F906F9060
:2016400008954615570591F42617370724F0892D4B01C22FD82F9E01281939092F5F3F4FEA
:20166000068CF78DE02DA601B401DACF0284F385E02D0995D501ED91FC910488F589E02DA1
:2016800083019401A601BE01C5010995D501ED91FC910688F789E02DC501DF91CF911F9125
:2016A0000F91FF90EF90DF90CF90BF90AF909F908F907F906F900994EF92FF920F931F93C1
:2016C000DC011A960D911C911B9718962D913C911997ED91FC9100A0F1A1E02D7B0150E0A1
:2016E00040E070E060E009951F910F91FF90EF9008954F925F926F927F928F929F92AF922A
:20170000BF92CF92DF92EF92FF920F931F93CF93DF936C012B015A0139014801DC01ED919A
:20172000FC910284F385E02D0995E201640C751CD601ED91FC91C615D7055CF40088F189A4
:20174000E02D87019401A501BE01C60109952196EFCF0688F789E02DC601DF91CF911F91BE
:201760000F91FF90EF90DF90CF90BF90AF909F908F907F906F905F904F9009948F929F9246
:20178000AF92BF92CF92DF92EF92FF920F931F93CF93DF93EC015B014A016901E881F981CA
:2017A0000284F385E02D099595012C0D3D1D21503109E881F9810488F589E02D78018401B4
:2017C000A401B501CE010995E881F9810688F789E02DCE01DF91CF911F910F91FF90EF9046
:2017E000DF90CF90BF90AF909F908F9009948F929F92AF92BF92CF92DF92EF92FF920F9338
:201800001F93CF93DF93EC015B014A0169017801E881F9810284F385E02D0995C80CD91C76
:20182000860101501109E881F9810488F589E02D9501A401B501CE010995E881F9810688ED
:20184000F789E02DCE01DF91CF911F910F91FF90EF90DF90CF90BF90AF909F908F900994B7
:20186000EF92FF920F931F93DC01ED91FC9100A0F1A1E02D09951F910F91FF90EF90089542
:201880000F931F93DC01ED91FC91068CF78DE02D09951F910F9108950F931F93DC01ED91AF
:2018A000FC91048CF58DE02D09951F910F910895DC01ED91FC910084F185E02D09943F9294
:2018C0004F925F926F927F928F929F92AF92BF92CF92DF92EF92FF920F931F93CF93DF9334
:2018E0005C017B014A016901390187E0680E711C93E0759467949A95E1F72B01400E511E4F
:2019000010E000E0312CD0E0C0E0CE0187709927330C892B59F4FE0183E0F595E7958A95FD
:20192000E1F7E00FF11FE80DF91D349037FE0AC021E030E0A701B5016C0F7D1F8FE893E092
:201940000E94580C2196CC16DD06F9F68FEFE81AF80A060D171DE414F504A9F6DF91CF91ED
:201960001F910F91FF90EF90DF90CF90BF90AF909F908F907F906F905F904F903F90089517
:201980002F923F924F925F926F927F928F929F92AF92BF92CF92DF92EF92FF920F931F93B5
:2019A000CF93DF9300D000D000D0CDB7DEB73C016A013E832D83FC82EB825801A41AB50AF0
:2019C000B7FE03C0B194A194B1088D809E80861A970A97FE03C09194819491088A149B0488
:2019E0005CF0902F812F0D811E819D838E839C2D8D2D6B01692F782F0C151D055CF09D81F3
:201A00008E817E836D83692F782F902F812F8601C92ED82E1601201A310A2B012D813E816F
:201A2000421A530A57FE03C0519441945108710137FE03C03FEFE31AF30AF594E7948D811E
:201A40009E81861797075CF5A1E0B0E0BA83A983C016D1064CF1D301ED91FC910484F58596
:201A6000E02D2B813C81A8016D817E818A149B041CF04D815E81B801C3010995E418F50850
:201A8000F7FE0AC02D813E8189819A81280F391F3E832D83E20CF31C0F5F1F4FD9CF2FEF56
:201AA0003FEF3A832983D4CF26960FB6F894DEBF0FBECDBFDF91CF911F910F91FF90EF90BB
:201AC000DF90CF90BF90AF909F908F907F906F905F904F903F902F900895EF92FF920F93A1
:201AE0001F93CF93DF93EC01EC80FD806E157F050CF070C057FF04C0240F351F50E040E066
:201B00008E819F81FA01E20FF31F8E179F071CF49C01241B350B121613060CF05BC0922F08
:201B2000842F8695869586958E9DD0018F9DB00D11246A0F7B1FAF8DB8A1A60FB71F47709D
:201B400049F188E0841B482F682F70E0FB01E059FF4FE491281708F063C0621B71092FEF7F
:201B600030E002C0359527956A95E2F7E2230130110539F0B0F10230110561F58C91E82755
:201B800002C08C91E82BEC93941720F12C813D81A20FB31FE92FE41BE83078F0023011054B
:201BA00021F58E2F9C9190959C932C813D81A20FB31F88508830B0F7E770EE2359F0F0E02B
:201BC000E859FF4FE49101301105F9F010F10230110519F1DF91CF911F910F91FF90EF9050
:201BE0000895E0958C91E823CECF81E00115110509F480E081959E2F8C932C813D81A20F06
:201C0000B31F98509830C0F7D7CF8C91E82BEC93E1CFE0958C91E823FACF8C91E827F7CF2E
:201C20000130110509F4ADCFE0F20230110509F4A5CFAE0DBF1DAECF0F931F93CF93DF931D
:201C400077FF04C0260F371F70E060E0DC011496CD91DC91FB01E20FF31FCE17DF071CF403
:201C60009E01261B370B121613064CF5FA0157FD3796A3E0F595E795AA95E1F7EC9FD001A8
:201C8000ED9FB00DFC9FB00D11246A0F7B1FDC015F96ED91FC91E60FF71F4770552781E0DF
:201CA00090E001C0880F4A95EAF7482F0130110559F0A8F02E0F3F1F02301105E1F0DF91D9
:201CC000CF911F910F9108952E0F3F1FE217F307B1F38191DF011197842B8C93F7CF809542
:201CE0002E0F3F1FE217F30751F39191DF01119798239C93F7CFE217F30709F38191DF01D7
:201D0000119784278C93F7CF0F931F93FA01DC0156964C9156974230E9F04330A1F14130E8
:201D200061F514964D915C91DA01AE1BBF0BFD01E21BF30B77FD0BC0DC0116964D915C91DE
:201D40006417750724F4AB01BF010E941C0E1F910F91089514964D915C91DA01A61BB70B7C
:201D6000BD0161507109DC0116964D915C91DA01AE1BBF0BFD01E21BF30B77FDE8CFAF01E4
:201D80000E946D0DE4CF16964D915C91DA01A61BB70BBD0161507109CDCF0F931F93FA01CB
:201DA000DC0156964C9156974230A9F0433091F1413019F514964D915C91DA01AE1BBF0B2E
:201DC000FD013197F7FD04C0AB01BF010E946D0D1F910F91089514964D915C91DA01A61BFF
:201DE000B70BBD01DC0116964D915C91DA01AE1BBF0BFD013197621B730BF7FDE9CFDC0157
:201E000016964D915C91E417F50714F7AF010E941C0EDECF16964D915C91DA01A61BB70B4B
:201E2000BD01621B730BCECFFC0177FD64C080859185681779070CF05EC057FD5CC082850C
:201E40009385481759070CF056C086898230B1F0833029F1813041F484819581841B950B2A
:201E6000AB01BC01615071092130310509F108F443C02230310509F463C0089584819581EE
:201E8000DC01A61BB70BBD016150710986819781DC01A41BB50BAD0141505109E5CF86812A
:201EA0009781861B970BBA01AC0141505109DCCFCA0157FD0796A3E095958795AA95E1F72D
:201EC000A481B5818A9F90018B9F300D9A9F300D1124620F731F078CF0A1E02DE60FF71F9C
:201EE0004770552721E030E001C0220F4A95EAF78081822B80830895CA0157FD079633E0CF
:201F0000959587953A95E1F7A481B5818A9F90018B9F300D9A9F300D1124620F731F078C17
:201F2000F0A1E02DE60FF71F4770552781E090E001C0880F4A95EAF7809590818923DACF61
:201F4000CA0157FD079623E0959587952A95E1F7A481B5818A9F90018B9F300D9A9F300DF3
:201F60001124620F731F078CF0A1E02DE60FF71F4770552721E030E001C0220F4A95EAF7F7
:201F800080818227B7CF08958EBD00000DB407FEFDCF8EB508958CBD9DBD08950895209129
:201FA0006C02260F3327331F21323105ECF420919002FC0190E080E0243069F082E00895AD
:201FC000A0916C022191AC01445B5D4FA40FB52FB11D2C930196861798F380916C02680FDF
:201FE00060936C0280E0089581E008951092900281E0809392021092910261E082E10E94CE
:20200000AA0661E083E10E94AA06E9EBF0E080818E7F808380818D7F808380E28093B80027
:2020200085E48093BC000895CF93DF9391E090934B028823B9F0C091B800D091BA0080918D
:20204000BC008A7B8093BC0060E082E10E94AA0660E083E10E94AA060E94F60FD093BA0041
:20206000C093B800DF91CF910895E091C5028091C402E81730F4F0E0EA5DFD4F808190E0E2
:2020800008958FEF9FEF08959091C5028091C4022FEF3FEF981748F4E92FF0E0EA5DFD4F89
:2020A000208130E09F5F9093C502C90108958091C4029091C502891B990B0895CF92DF92AA
:2020C000EF92FF920F931F93CF93DF937C01CB018A012091D502222389F0EB016B01C40E82
:2020E000D51ECC15DD0569F06991D701ED91FC910190F081E02DC7010995F3CF642F0E9488
:20210000CF0FC801DF91CF911F910F91FF90EF90DF90CF900895CF93DF931F92CDB7DEB7E1
:2021200069832091D5022223F9F02091D202203258F021E030E0FC013383228390E080E0A5
:202140000F90DF91CF9108958091D302E82FF0E0EA5FFD4F998190838F5F8093D3028093FB
:20216000D20281E090E0ECCF61E0CE0101960E94CF0FF7CFCF92DF92EF92FF920F931F93DA
:20218000CF93DF93D091D20281E0D13208F09CC0C091D4020E9421076B017C018091900201
:2021A00081116CC082E08093900281E0809392028FEF80938F021092B402D093B302A6E03A
:2021C000B2E0E3E9F2E080E0D8138DC01092B5028091B502CC0FC82BC093B502809191029A
:2021E000813009F084C0109291020E9421076B017C018091B5028093BB00809147029091F8
:202200004802A0914902B0914A02892B8A2B8B2BA1F00E942107009147021091480220917B
:20222000490230914A026C197D098E099F09061717072807390708F442C08091BC0083FD07
:20224000D8CF85EC8093BC000E9421076B017C0180919002823009F44CC080918F028F3F16
:2022600009F469C080918F02803209F466C080918F02803309F463C084E026C080914702A8
:2022800090914802A0914902B0914A02892B8A2B8B2B09F483CF0E94210700914702109117
:2022A00048022091490230914A026C197D098E099F09061717072807390708F06FCF809190
:2022C00046020E94141085E01092D3021092D2021092D502DF91CF911F910F91FF90EF90F7
:2022E000DF90CF9008959D9191938F5F6DCF85EEA9CF8091470290914802A0914902B0918A
:202300004A02892B8A2B8B2B09F4A2CF0E94210700914702109148022091490230914A024C
:202320006C197D098E099F09061717072807390708F08ECFC4CF80E0C7CF82E0C5CF83E072
:20234000C3CFEF92FF920F931F93CF93DF937C01C62F8091AC039091AD03009709F459C001
:202360002091B00331E03093D5022093D4021092D3021092D202DC01ED91FC910190F081EE
:20238000E02D60E009958701EE24E394F12CD1E0C1508091AC039091AD03CF3F91F1B0E2AF
:2023A000EB16F104D8F00E94BA108091AC039091AD032091B003D093D5022093D402109299
:2023C000D3021092D202DC01ED91FC910190F081E02D60E00995EE24E394F12C8091AC0377
:2023E0009091AD03F8016491DC01ED91FC910190F081E02D0995BFEFEB1AFB0A0F5F1F4FF5
:20240000C7CFDF91CF911F910F91FF90EF900C94BA10E091BC03F091BD0390818091C20336
:202420008095892380838701C15008F438C0F80184912091AA033091AB03232B29F00E9467
:20244000C40F0F5F1F4FF0CF28E030E040E8E091B803F091B9039091C003582F5423D9F0BA
:202460005081952B9083E091BA03F091BB0390815091C103952B9083E091BA03F091BB0355
:2024800050819091C103909595239083469521503109E9F6D6CF508190959523E3CFDF91BC
:2024A000CF911F910F91FF90EF9008951F93CF93DF93EC018D8D9E8D009721F1162F29A151
:2024C00031E03093D5022093D4021092D3021092D202DC01ED91FC910190F081E02D60E0A4
:2024E00009958D8D9E8DDC01ED91FC910190F081E02D612F09958D8D9E8DDF91CF911F910F
:202500000C94BA10ADA5BEA59C918BA9809589238C938B8D9C8D892B31F0862FDF91CF91C0
:202520001F910C94C40F28E030E080E8A9A5BAA599A9462F4823C1F04C91942B9C93ABA55D
:20254000BCA59C914AA9942B9C93ABA5BCA54C919AA9909594239C9386952150310931F742
:20256000DF91CF911F9108954C9190959423E6CFDF92EF92FF920F931F93CF93DF93809114
:20258000AC039091AD03892B09F498C02091C4033091C5034091C6035091C70360E072E1D9
:2025A0008AE790E00E94311F205131094109510956954795379527952093B80065E084E88E
:2025C0009AE00E94A1116091930361508FE893E00E9456122091950330919603C9010796F7
:2025E00097FD079633E0959587953A95E1F72091930330919403829F8001839F100D929FF9
:20260000100D1124C091AE03D091AF038091AC039091AD030C0F1D1F009709F48FC02091D7
:20262000B00331E03093D5022093D4021092D3021092D202DC01ED91FC910190F081E02DCF
:2026400060E40995EE24E394F12CDD24D3948091AC039091AD030C171D0709F446C0B0E21D
:20266000EB16F104D8F00E94BA108091AC039091AD032091B003D092D5022093D4021092D7
:20268000D3021092D202DC01ED91FC910190F081E02D60E40995EE24E394F12C8091AC03B0
:2026A0009091AD036991DC01ED91FC910190F081E02D0995BFEFEB1AFB0AC9CF8091AA03AC
:2026C0009091AB03892B31F08091CD039091CE030E94CB0FE091BE03F091BF039081809170
:2026E000C30380958923808369CF0E94BA108091AC039091AD03892B09F461C02091C803CD
:202700003091C9034091CA035091CB0360E072E18AE790E00E94311F20513109410951092A
:2027200056954795379527952093B800DF91CF911F910F91FF90EF90DF900895E091BC0375
:20274000F091BD0380819091C203892B80830C171D0769F289912091AA033091AB03232BC3
:2027600019F00E94C40FF3CF28E030E040E8E091B803F091B9039091C003582F5423D9F0C5
:202780005081952B9083E091BA03F091BB0390815091C103952B9083E091BA03F091BB0332
:2027A00050819091C103909595239083469521503109E9F6CCCF508190959523E3CFE091A2
:2027C000BE03F091BF0380819091C303892B8083ADCF1F93CF93DF93EC01162F8D8D9E8DDD
:2027E000892BB1F12DA93EA94FA958AD60E072E18AE790E00E94311F205131094109510914
:2028000056954795379527952093B80066EA111167EACE010E9456128D8D9E8D892B41F137
:2028200029AD3AAD4BAD5CAD60E072E18AE790E00E94311F2051310941095109569547955E
:20284000379527952093B800DF91CF911F9108958B8D9C8D892B21F08EAD9FAD0E94CB0F5F
:20286000EFA5F8A990818CA9809589238083CECFEFA5F8A980819CA9892B8083E5CF90E026
:2028800080E00895FC0101900020E9F73197AF01481B590BBC018FE893E00C9474058F928D
:2028A0009F92AF92BF920F931F93CF93DF93CDB7DEB7A1970FB6F894DEBF0FBECDBF19A2DA
:2028C000423008F44AE08E010F5D1F4F842E912CB12CA12CA50194010E94311FE62FB901E2
:2028E000CA01EA30F4F4E05DD801EE938D01232B242B252B79F790E080E0109719F0CD013B
:202900000E944214A1960FB6F894DEBF0FBECDBFDF91CF911F910F91BF90AF909F908F9045
:202920000895E95CE1CF0C9442144F925F926F927F928F929F92AF92BF92CF92DF92EF92F4
:20294000FF920F931F93CF936B017C01742EAC019B010E94E621882399F087E591E0CF9142
:202960001F910F91FF90EF90DF90CF90BF90AF909F908F907F906F905F904F900C9442147D
:2029800046015701E894B7F82FEF3FEF4FE75FE7C501B4010E94E62181110DC02FEF3FEFD6
:2029A0004FE75FE7C501B4010E94CF1F18161CF48BE591E0D4CF2FEF3FEF4FE75FE4C70141
:2029C000B6010E942E2118161CF48FE591E0C7CF2FEF3FEF4FE75FECC701B6010E94CF1FBA
:2029E00087FDF3CF20E030E0A901C701B6010E94CF1F10E000E087FF0AC06DE28FE893E06F
:202A00000E94B3098C01F7FAF094F7F8F094C0E060E070E080E09FE37C1641F020E030E0FE
:202A200040E251E40E94D41FCF5FF6CFA70196010E94631F2B013C010E944D204B015C0133
:202A40004AE00E944F147C01E00EF11ECC23C1F1C501B4010E947C209B01AC01C301B201B3
:202A60000E94621F4B015C016EE28FE893E00E94B309E80EF91EC15018F120E030E040E299
:202A800051E4C501B4010E9433212B013C010E944D204B01B12CA12C4AE0C501B4010E94DB
:202AA0004F14E80EF91EC501B4010E947C209B01AC01C301B2010E94621F4B015C01DBCFB7
:202AC000C701CF911F910F91FF90EF90DF90CF90BF90AF909F908F907F906F905F904F90EA
:202AE00008952091950330919603C901079697FD079623E0959587952A95E1F720919303D7
:202B000030919403829FA001839F500D929F500D112470E060E08091AE039091AF030C9494
:202B200037230E94322385ED8093BC008091470290914802A0914902B0914A020796A11DDA
:202B4000B11D23E0B695A795979587952A95D1F72091BC0024FD03C010929002089540915B
:202B60004702509148026091490270914A02452B462B472B69F30097A105B10541F02AE17A
:202B80002A95F1F700C00197A109B109E1CF809146020C9414101F920F920FB60F92112418
:202BA0002F933F934F935F936F937F938F939F93AF93BF93EF93FF9386ED92E00E94F2051F
:202BC000FF91EF91BF91AF919F918F917F916F915F914F913F912F910F900FBE0F901F90DB
:202BE00018951F920F920FB60F9211242F938F939F93EF93FF93E091E602F091E70280814D
:202C0000E091EC02F091ED0282FD1BC090818091EF028F5F8F732091F002821741F0E091AA
:202C2000EF02F0E0EA52FD4F958F8093EF02FF91EF919F918F912F910F900FBE0F901F9049
:202C400018958081F4CF1F920F920FB60F9211242F933F938F939F93AF93BF938091B702D0
:202C60009091B802A091B902B091BA023091B60226E0230F2D3758F50296A11DB11D209357
:202C8000B6028093B7029093B802A093B902B093BA028091BB029091BC02A091BD02B09108
:202CA000BE020196A11DB11D8093BB029093BC02A093BD02B093BE02BF91AF919F918F91AB
:202CC0003F912F910F900FBE0F901F90189529E8230F0396A11DB11DD2CF1F920F920FB6DD
:202CE0000F9211242F933F934F935F936F937F938F939F93AF93BF93EF93FF938091B900BC
:202D0000887F803609F44AC0F0F5883209F4A7C018F5803109F49BC0B8F4882309F4F9C0C9
:202D2000883009F494C0FF91EF91BF91AF919F918F917F916F915F914F913F912F910F908B
:202D40000FBE0F901F901895883109F488C0803251F780938F0214C0803409F49DC040F4F9
:202D60008033B9F38833F9F680938F0285ECB0C0803509F485C0883509F496C0883499F673
:202D80000E949315D0CF883909F48CC038F5883729F050F4883611F0803729F683E08093EC
:202DA000900210928E0257C0883809F47BC0803919F0803809F0B7CF80918E02803208F0FC
:202DC00071C0E0918E0281E08E0F80938E028091BB00F0E0E259FD4F80833DC0803B39F019
:202DE000E0F4803A09F479C0883A09F09CCF84E08093900210926D0210926C02E091C2028A
:202E0000F091C302099580916C0281110FC081E080936C0210924C0209C0803C09F4A6CF25
:202E2000883C09F4A3CF883B09F07DCFE0916D0281E08E0F80936D02F0E0E45BFD4F80819B
:202E40008093BB0090916D0280916C0229C08091B5028093BB0085EC8093BC0064CF909182
:202E6000B4028091B302981758F5E091B40281E08E0F8093B402F0E0ED56FD4F8081E9CFD4
:202E8000E091B40281E08E0F8093B4028091BB00F0E0ED56FD4F80839091B4028091B30279
:202EA0009817C8F285E8D8CFE091B40281E08E0F8093B4028091BB00F0E0ED56FD4F808379
:202EC0008091920281115CCF81E08093910284EA8093BC001092900226CF85EC8093BC00E3
:202EE0001092900280918E02803230F4E0918E02F0E0E259FD4F108260918E0270E0E091FB
:202F0000C002F091C1028EE692E0099510928E020ACF10928F0234CFE6EDF2E01382128218
:202F200048EE53E060E070E044835583668377838BE091E09183808385EC90E0958784871B
:202F400084EC90E09787868780EC90E0918B808B81EC90E0938B828B82EC90E0958B848B4E
:202F600086EC90E0978B868B118E128E138E148EA3E8B3E013961C921E92129714964D9362
:202F80005D936D937C9317978DE191E011969C938E93EFE8F3E01382128220E830E035830B
:202FA000248380E490E0978386833187208793878287168A158614861786168691E0958B52
:202FC000948B2FEF3FEF338B228B318B208B978B108E128E118E2FE231E031832083148E9A
:202FE000138EB68FA58F10A2178E8FEF84A385A386A387A380A740E85AE166E070E045AB30
:2030000056AB67AB70AF40EA56E861E070E041AF52AF63AF74AF80E586AF97AFEBE7F3E0DA
:2030200080E090E0A0E0BFE380839183A283B3831482158216821782E3E7F3E0808391831A
:20304000A283B38314821582168217820895CF93DF9300D000D0CDB7DEB7789484B5826066
:2030600084BD84B5816084BD85B5826085BD85B5816085BD80916E00816080936E00109276
:2030800081008091810082608093810080918100816080938100809180008160809380009B
:2030A0008091B10084608093B1008091B00081608093B00080917A00846080937A00809134
:2030C0007A00826080937A0080917A008E7F80937A0080917A00806880937A001092C1007F
:2030E00080917A00887F80937A0080917A00866080937A0083E08093000180917E008860C5
:2031000080937E0080917E00806180937E0080917E00806280937E0062E088E00E94D806F1
:2031200080E10E94090764EF71E080E090E00E94460780E10E940907BC01990F880B990B6A
:203140000E947E2020E030E040E05FE30E94631F2DEC3CEC4CE85FE30E94332120E030E0DC
:2031600040E85AE30E9433212DEC3CEC4CE950E40E9433216093C6027093C7028093C802F0
:203180009093C902E091E602F091E70282E08083E091E202F091E3021082E091E402F091F4
:2031A000E50287E680831092EE02E091EA02F091EB0286E08083E091E802F091E90280812A
:2031C00080618083E091E802F091E902808188608083E091E802F091E902808180688083A5
:2031E000E091E802F091E90280818F7D80838091AE039091AF03892B11F10E9471152091D4
:203200009503309196038091930390919403213231050CF0C6C0B9016052710977FF02C034
:203220006F5F7F4F759567958357910997FD019600E210E023E730E04EE955E0C5C02091BF
:20324000950330919603C901079697FD0796B3E095958795BA95E1F7209193033091940345
:20326000AC01429FC001439F900D529F900D11240E940D229093AF038093AE03892B09F0A6
:20328000BCCF62E08FE893E00E9479070E94711581E08093A3038093A40381E090E0909365
:2032A000A2038093A1039093A00380939F0310929C0310929B0310929E0310929D0383E6C8
:2032C00091E00E94931410929C0310929B0380E190E090939E0380939D0389E791E00E94E8
:2032E000931410929C0310929B0380E290E090939E0380939D0382E991E00E949314609147
:20330000C6027091C7028091C8029091C90242E00E94951410929C0310929B0380E390E093
:2033200090939E0380939D0383EA91E00E9493148CEA91E00E94931483EA91E00E94931498
:203340000E94B81268E873E180E090E00E944607E4E12E2E312C8EE00E940907BC01990F9B
:20336000880B990B0E947E206B017C0120E030E040E85FE30E94CF1F87FD16C220E030EC6B
:203380004FE754E4C701B6010E942E2118160CF011C2C12C60ECD62E6FE7E62E64E4F62E3F
:2033A00009C2B9016054710977FF02C06F5F7F4F759567958255910997FD019600E410E010
:2033C00022E530E04EE757E0959587950E945F0C82E08093B1038091AC039091AD03892BA9
:2033E00009F4E0C08CE38093B0031092C5021092C4021092D3021092D2020E94F60F82E72D
:2034000095E09093C3028093C20283E795E09093C1028093C0028091B70387FD1EC061E070
:203420000E94D80661E08091B7030E94AA0661E070E080E090E00E94460760E08091B70353
:203440000E94AA066AE070E080E090E00E94460761E08091B7030E94AA068091AC03909182
:20346000AD03892B09F45FC12091C4033091C5034091C6035091C70360E072E18AE790E011
:203480000E94311F205131094109510956954795379527952093B80064E080E995E00E946D
:2034A000A1116091950361508FE893E00E94561264E08CE895E00E94A1118091B10364E1A1
:2034C000813009F460E18FE893E00E94561264E088E895E00E94A1118FE88093CC03809122
:2034E0009303909194038038910509F035C180919503909196038034910509F042C1809187
:20350000B103813009F426C18FEC8093CC0392E199836AED8FE893E00E94561269818FE8CA
:2035200093E00E94561261E88FE893E00E9456126091CC038FE893E00E94561269ED8FE850
:2035400093E00E9456128091B10361EF813009F462E28FE893E00E94561266E082E895E0CE
:203560000E94A1118091AC039091AD03892B09F411C12091C8033091C9034091CA0350915B
:20358000CB0360E072E18AE790E00E94311F205131094109510956954795379527952093A6
:2035A000B8006FCE61E08091B5030E94D80661E08091B6030E94D8068091B503082E000CF6
:2035C000990BFC01E85BF54FE491F0E0EE0FFF1FEC56FA4F259134913093BD032093BC0368
:2035E000FC01E45AF54FE491E093C2038091B603082E000C990BFC01E85BF54FE491F0E026
:20360000EE0FFF1FEC56FA4FA591B491B093BF03A093BE03FC01E45AF54FE491E093C30363
:203620008C91E82BEC938091AA039091AB03892B09F436C05FB75983F8948091BF028111C5
:2036400027C0E2E5FAE08491E6E6FAE09491E82FF0E0EE0FFF1FE858FA4FA591B491EC917F
:20366000E92321F461E08AE00E94AA0661E08AE00E94D8068CB580618CBD8CB580648CBD28
:2036800061E08DE00E94D80661E08BE00E94D8068091BF028F5F8093BF0289818FBFBBCE5B
:2036A00061E08091B3030E94D80661E08091B4030E94D8068091B303082E000C990BFC014F
:2036C000E85BF54FE491F0E0EE0FFF1FEC56FA4F259134913093B9032093B803FC01E45AD5
:2036E000F54FE491E093C0038091B403082E000C990BFC01E85BF54FE491F0E0EE0FFF1F49
:20370000EC56FA4FA591B491B093BB03A093BA03FC01E45AF54FE491E093C1038C91E095F5
:20372000E823EC9378CE8091AA039091AB03892B31F08091CD039091CE030E94CB0FE09197
:20374000BE03F091BF0390818091C303809589238083A2CE8FE9D9CE80369105A9F4809130
:20376000950390919603409791F48091B103813031F08FEA8093CC03E2E0E983CACE80E182
:20378000F9CFF2E0F983C5CE42E04983C2CE52E05983BFCEE091BE03F091BF0380819091D0
:2037A000C303892B80836DCDC12CD12C70E8E72E7FE3F72E20E030E040E05FE3C701B60183
:2037C0000E94631F2DEC3CEC4CE85FE30E94332120E030E040E85AE30E94332123E333E391
:2037E00043E350E40E9433216B017C01AC019B010E9433214B015C0120E030E040E45FE332
:20380000C701B6010E9433219B01AC01C501B4010E94631F6B017C01C092CE02D092CF020D
:20382000E092D002F092D10280907B0390907C03A0907D03B0907E03A501940160E070E086
:2038400080E89FE30E94621F20917F033091800340918103509182030E9433212B013C01CA
:20386000A7019601C501B4010E9433219B01AC01C301B2010E94631F2B013C0140927F03F7
:203880005092800360928103709282038FE00E940907BC01990F880B990B0E947E2020E0C9
:2038A00030E040E05FE30E94631F2DEC3CEC4CE85FE30E94332120E030E040E85AE30E94AE
:2038C000332123E333E343E350E40E9433214B015C01AC019B010E94332169837A838B8349
:2038E0009C8320E030E040E45FE3C501B4010E9433219B01AC0169817A818B819C810E94C9
:20390000631F4B015C012AE037ED43E25CE30E94CF1F87FD4BC08092CA029092CB02A092CC
:20392000CC02B092CD02A70196016091CA027091CB028091CC029091CD020E94D41F0E94D8
:20394000A6216B017C0120E030E040E85FE30E94631F4B015C01A701960160E070E080E839
:203960009FE30E94621F9B01AC01C501B4010E94D41F6B017C0120E030E040E85FE30E9444
:20398000CF1F87FD1CC02DEC3CEC47EC52E4C701B6010E942E211816C4F44DECC42E4CEC76
:2039A000D42E47ECE42E42E4F42E0FC01092CA021092CB021092CC021092CD02B4CFC12C7B
:2039C000D12C50E8E52E5FE3F52E8090730390907403A0907503B0907603A501940160E041
:2039E00070E080E89FE30E94621F20917703309178034091790350917A030E943321698376
:203A00007A838B839C83A7019601C501B4010E9433219B01AC0169817A818B819C810E94D3
:203A2000631F4B015C018092770390927803A0927903B0927A03E8E7FAE08491E4E6FAE063
:203A40000491E0E5FAE01491112309F4A4C081110E948106E12FF0E0EE0FFF1FE25CF54FC0
:203A6000A591B4918C91082309F495C00E94711582E08093A3038093A4034CE050E05093F5
:203A80009C0340939B038AE090E090939E0380939D0381EB91E00E9493140CE310E010931D
:203AA0009C0300939B03EAE0F0E0F0939E03E0939D0341E0C301B2010E94951487EB91E09F
:203AC0000E9493144CE050E050939C0340939B0322E2E22EF12CF0929E03E0929D0389EB74
:203AE00091E00E94931410939C0300939B03F0929E03E0929D032AE037ED43E25CE36091E1
:203B0000CE027091CF028091D0029091D1020E94CF1F87FF13C08FEB91E00E9493140E946D
:203B2000B81280E090E0892B09F415CC0E94DE05882309F410CC0E9400000DCC20E030E0C5
:203B400040E451E4C501B4010E942E211816ECF484EC91E00E94931420E030E040E450E400
:203B6000C501B4010E942E211816CCF68CE090E090939C0380939B0382E390E090939E0301
:203B800080939D0388EC91E0C8CF41E0C501B4010E949514E1CF0E947115DD24D394D0926D
:203BA000A303D092A40310929C0310929B0310929E0310929D0382ED91E00E949314109285
:203BC0009C0310929B03EAE0F0E0F0939E03E0939D0386ED91E00E94931410929C03109225
:203BE0009B0340E250E050939E0340939D038CEE91E00E94931410929C0310929B0389E2BE
:203C000090E090939E0380939D0380EF91E00E94931420E030E040E251E4C301B2010E9414
:203C200033210E944620DB0125E730E00E94002228E730E040E050E00E94071FEE24E394AC
:203C4000F12C0AE010E043E150E070E060E08FE893E00E94790B30929C0320929B03109226
:203C60009E0310929D0341E0C301B2010E94951420E030E040E451E4C301B2010E942E21AD
:203C800018165CF582E08093A3038093A4031092A2031092A1031092A00310929F03E3E7F0
:203CA000F0E0F0939C03E0939B0341E150E050939E0340939D0384E092E00E94931481E038
:203CC00090E09093A2038093A1039093A00380939F03D092A303D092A4032AE037ED43E216
:203CE0005CE36091CE027091CF028091D0029091D1020E942E2187FD12CF20E030E040E293
:203D000051E4C501B4010E9433210E9446209B01770F440B550B2A50310941095109A5E740
:203D2000B0E00E94261F2AE530E040E050E00E94071FEE24E394F12C0AE010E040E350E002
:203D400070E060E08FE893E00E94790B20E030E040E451E4C501B4010E942E211816C4F507
:203D600082E08093A3038093A4031092A2031092A1031092A00310929F0383E790E090935B
:203D80009C0380939B03EEE2F0E0F0939E03E0939D0384E092E00E94931481E090E09093E9
:203DA000A2038093A1039093A00380939F038093A3038093A40330929C0320929B0340E2E6
:203DC00050E050939E0340939D0384EC91E0A5CE30929C0320929B0380E290E090939E0321
:203DE00080939D0341E0C501B4010E94951497CE8FE291E09093900380938F038091AE03C5
:203E00009091AF03009711F00C94A9220895052E97FB1EF400940E941E1F57FD07D00E9418
:203E2000311F07FC03D04EF40C941E1F50954095309521953F4F4F4F5F4F08959095809557
:203E4000709561957F4F8F4F9F4F08950E94531FA59F900DB49F900DA49F800D911D112498
:203E60000895A1E21A2EAA1BBB1BFD010DC0AA1FBB1FEE1FFF1FA217B307E407F50720F03C
:203E8000A21BB30BE40BF50B661F771F881F991F1A9469F760957095809590959B01AC01B3
:203EA000BD01CF010895A29FB001B39FC001A39F700D811D1124911DB29F700D811D1124F1
:203EC000911D08955058BB27AA270E947A1F0C94F4200E94E62038F00E94ED2020F039F491
:203EE0009F3F19F426F40C94E3200EF4E095E7FB0C94DD20E92F0E94052158F3BA176207BF
:203F000073078407950720F079F4A6F50C9427210EF4E0950B2EBA2FA02D0B01B901900143
:203F20000C01CA01A0011124FF27591B99F0593F50F4503E68F11A16F040A22F232F342F07
:203F40004427585FF3CF469537952795A795F0405395C9F77EF41F16BA0B620B730B840B20
:203F6000BAF09150A1F0FF0FBB1F661F771F881FC2F70EC0BA0F621F731F841F48F487951D
:203F800077956795B795F7959E3F08F0B0CF9395880F08F09927EE0F9795879508950E94F2
:203FA000B92008F481E008950E94E81F0C94F4200E94ED2058F00E94E62040F029F45F3F47
:203FC00029F00C94DD2051110C9428210C94E3200E94052168F39923B1F3552391F3951B0E
:203FE000550BBB27AA2762177307840738F09F5F5F4F220F331F441FAA1FA9F335D00E2ED0
:204000003AF0E0E832D091505040E695001CCAF72BD0FE2F29D0660F771F881FBB1F2617F9
:2040200037074807AB07B0E809F0BB0B802DBF01FF2793585F4F3AF09E3F510578F00C9459
:20404000DD200C9428215F3FE4F3983ED4F3869577956795B795F7959F5FC9F7880F911D6A
:204060009695879597F90895E1E0660F771F881FBB1F621773078407BA0720F0621B730B35
:20408000840BBA0BEE1F88F7E09508950E944D206894B1110C94282108950E940D2188F093
:2040A0009F5798F0B92F9927B751B0F0E1F0660F771F881F991F1AF0BA95C9F714C0B13029
:2040C00091F00E942721B1E008950C942721672F782F8827B85F39F0B93FCCF38695779555
:2040E0006795B395D9F73EF490958095709561957F4F8F4F9F4F0895E89409C097FB3EF405
:2041000090958095709561957F4F8F4F9F4F9923A9F0F92F96E9BB279395F6958795779517
:204120006795B795F111F8CFFAF4BB0F11F460FF1BC06F5F7F4F8F4F9F4F16C0882311F08D
:2041400096E911C0772321F09EE8872F762F05C0662371F096E8862F70E060E02AF09A95C8
:20416000660F771F881FDAF7880F9695879597F90895990F0008550FAA0BE0E8FEEF161607
:204180001706E807F907C0F012161306E407F50798F0621B730B840B950B39F40A2661F0DB
:2041A000232B242B252B21F408950A2609F4A140A6958FEF811D811D089597F99F6780E8C2
:2041C00070E060E008959FEF80EC089500240A941616170618060906089500240A9412165C
:2041E0001306140605060895092E0394000C11F4882352F0BB0F40F4BF2B11F460FF04C008
:204200006F5F7F4F8F4F9F4F089557FD9058440F551F59F05F3F71F04795880F97FB991F91
:2042200061F09F3F79F087950895121613061406551FF2CF4695F1DF08C0161617061806C3
:20424000991FF1CF86957105610508940895E894BB2766277727CB0197F908950E94B920B9
:2042600008F48FEF08950E9446210C94F4200E94E62038F00E94ED2020F0952311F00C9482
:20428000DD200C94E32011240C9428210E94052170F3959FC1F3950F50E0551F629FF00113
:2042A000729FBB27F00DB11D639FAA27F00DB11DAA1F649F6627B00DA11D661F829F2227DF
:2042C000B00DA11D621F739FB00DA11D621F839FA00D611D221F749F3327A00D611D231F6C
:2042E000849F600D211D822F762F6A2F11249F5750409AF0F1F088234AF0EE0FFF1FBB1F01
:20430000661F771F881F91505040A9F79E3F510580F00C94DD200C9428215F3FE4F3983E56
:20432000D4F3869577956795B795F795E7959F5FC1F7FE2B880F911D9695879597F90895A7
:2043400019F416F40C94E3200C94EB210E940D21B8F39923C9F3B6F39F57550B87FF0E94DD
:20436000F9210024A0E640EA900180585695979528F4805C660F771F881F20F0261737079A
:20438000480730F4621B730B840B202931294A2BA69517940794202531254A2758F7660FB7
:2043A000771F881F20F026173707480730F4620B730B840B200D311D411DA09581F7B90108
:2043C000842F9158880F9695879508950E94B920880B990B08959F3F31F0915020F4879567
:2043E00077956795B795880F911D9695879597F9089591505040660F771F881FD2F7089527
:204400000E94531FB7FF0895821B930B0895EE0FFF1F0590F491E02D09940F931F93CF93C8
:20442000DF938230910510F482E090E0E091D103F091D20330E020E0B0E0A0E0309799F4DD
:204440002115310509F44AC0281B390B24303105D8F58A819B816115710589F1FB0193836C
:204460008283FE0111C0408151810281138148175907E0F04817590799F4109761F0129642
:204480000C93129713961C933296CF01DF91CF911F910F9108950093D1031093D203F4CF85
:2044A0002115310551F04217530738F0A901DB019A01BD01DF01F801C1CFEF01F9CF909351
:2044C000D2038093D103CDCFFE01E20FF31F819391932250310939832883D7CF2091CF030E
:2044E0003091D003232B41F420910301309104013093D0032093CF03209101013091020198
:204500002115310541F42DB73EB74091050150910601241B350BE091CF03F091D003E21753
:20452000F307A0F42E1B3F0B2817390778F0AC014E5F5F4F2417350748F04E0F5F1F5093FE
:20454000D0034093CF03819391939FCFF0E0E0E09CCFCF93DF930097E9F0FC0132971382A3
:204560001282A091D103B091D203ED0130E020E01097A1F420813181820F931F2091CF0339
:204580003091D0032817390709F061C0F093D003E093CF03DF91CF910895EA01CE17DF0730
:2045A000E8F54A815B819E0141155105B1F7E901FB83EA8349915991C40FD51FEC17FD071D
:2045C00061F4808191810296840F951FE90199838883828193819B838A83F0E0E0E0129609
:2045E0008D919C9113970097B9F52D913C911197CD010296820F931F2091CF033091D0038E
:204600002817390739F6309751F51092D2031092D103B093D003A093CF03BCCFD383C283B1
:2046200040815181840F951FC817D90761F44E5F5F4F88819981480F591F518340838A819D
:204640009B81938382832115310509F0B0CFF093D203E093D1039ECFFD01DC01C0CF138234
:204660001282D7CF81E090E0F8940C943E23DC0101C06D9341505040E0F7089515E0C6E4D0
:20468000D5E004C0FE010E9407222196C734D107C9F7F894FFCF010000D3038000000000DC
:2046A0000014067405A1056106D205B005C405000000008B105E103F147105571044103543
:2046C0001000000000B30974053F14CE0F140F7105580C300C4C0C400CC00C71057907E9DD
:2046E00013840ECD0E790B5C0BE40A850A6E616E00696E66006F766600202020504F574572
:20470000522F535752204D4554455220202000202020203132205761747473206D6178693A
:204720006D756D20202020004261747465727920766F6C7473203D20002D2D2D2D2D2D2DBF
:204740002D0076312E31005057523A200057005357523A20002A2A2E2A00494E4600574105
:20476000524E494E472021005057520030202032202034202036202038202031302020316B
:2047800032005357520031203220332034203520362037203820392031302B00FFFFFFFF66
:2047A000FFFFFFFFFFFFFFFFFFFFFFFFFFFFFFFFFFFFFFFFFFFFFFFFFFFFFFFFFFFFFFFF19
:2047C000FFFFFFFFFFFFFFFFFFFFFFFFFFFFFFFFFFFFFFFFFFFFFFFFFFFFFFFFFFFFFFFFF9
:2047E000FFFFFFFFFFFFFFFFFFFFFFFFFFFFFFFFFFFFFFFFFFFFFFFFFFFFFFFFFFFFFFFFD9
:20480000FFFFFFFFFFFFFFFFFFFFFFFFFFFFFFFFFFFFFFFFFFFFFFFFFFFFFFFFFFFFFFFFB8
:207800000C94343C0C94513C0C94513C0C94513C0C94513C0C94513C0C94513C0C94513C1D
:207820000C94513C0C94513C0C94513C0C94513C0C94513C0C94513C0C94513C0C94513CE0
:207840000C94513C0C94513C0C94513C0C94513C0C94513C0C94513C0C94513C0C94513CC0
:207860000C94513C0C94513C11241FBECFEFD8E0DEBFCDBF11E0A0E0B1E0EAE8FFE702C081
:2078800005900D92A230B107D9F712E0A2E0B1E001C01D92AD30B107E1F70E942D3D0C94CC
:2078A000C33F0C94003C982F9595959595959595905D8F708A307CF0282F295A8091C000BE
:2078C00085FFFCCF9093C6008091C00085FFFCCF2093C6000895282F205DF0CF982F8091CF
:2078E000C00085FFFCCF9093C6000895EF92FF920F931F93EE24FF2487018091C00087FD7B
:2079000017C00894E11CF11C011D111D81E2E81681EAF80687E0080780E0180770F3E0910B
:207920000401F091050109958091C00087FFE9CF8091C6001F910F91FF90EF9008950E949A
:20794000763C982F8091C00085FFFCCF9093C60091362CF490330CF09053892F08959755DB
:20796000892F08951F930E949F3C182F0E949F3C1295107F810F1F9108951F93182F882308
:2079800021F00E94763C1150E1F71F9108951F93182F0E94763C803249F0809103018F5FC1
:2079A000809303018530C1F01F9108958091C00085FFFCCF84E18093C6008091C00085FF4A
:2079C000FCCF1093C6008091C00085FFFCCF80E18093C6001F910895E0910401F0910501CF
:2079E00009951F9108950E94763C803241F0809103018F5F80930301853081F00895809177
:207A0000C00085FFFCCF84E18093C6008091C00085FFFCCF80E18093C6000895E0910401AC
:207A2000F09105010995089548EC50E08823A1F02D9A28EE33E0FA013197F1F72150304068
:207A4000D1F72D9828EE33E0FA013197F1F721503040D1F7815061F708953F924F925F92B3
:207A60006F927F928F929F92AF92BF92CF92DF92EF92FF920F931F93CF93DF93000082E0A2
:207A80008093C00080E18093C4001092C50088E18093C10086E08093C2005098589A259A63
:207AA00081E00E94143D24E1F22E9EE1E92E85E9D82E0FE0C02E10E1B12EAA24A394B1E4FC
:207AC0009B2EA6E58A2EF2E57F2EE0E26E2E79E4572E63E5462E50E5352E0E94763C80337B
:207AE000B1F18133B9F1803409F46FC0813409F476C0823409F485C0853409F488C0803513
:207B000031F1823521F1813511F1853509F485C0863509F48DC0843609F496C0843709F4FC
:207B200003C1853709F472C1863709F466C0809103018F5F80930301853079F6E091040101
:207B4000F091050109950E94763C803351F60E94F33CC3CF0E94763C803249F78091C00038
:207B600085FFFCCFF092C6008091C00085FFFCCF9092C6008091C00085FFFCCF8092C6006E
:207B80008091C00085FFFCCF7092C6008091C00085FFFCCF6092C6008091C00085FFFCCF05
:207BA0005092C6008091C00085FFFCCF4092C6008091C00085FFFCCF3092C6008091C000EC
:207BC00085FFFCCFB092C60088CF0E94763C863808F4BDCF0E94763C0E94F33C7ECF0E9449
:207BE000763C803809F49CC0813809F40BC1823809F430C1883909F48FC080E00E94C73C86
:207C00006CCF84E10E94BD3C0E94F33C66CF85E00E94BD3C0E94F33C60CF0E94763C8093BC
:207C200006010E94763C809307010E94F33C55CF0E94763C803309F411C183E00E94BD3C05
:207C400080E00E94C73C49CF0E94763C809309020E94763C8093080280910C028E7F8093E5
:207C60000C020E94763C853409F409C18091080290910902892B89F000E010E00E94763C8A
:207C8000F801E85FFE4F80830F5F1F4F80910802909109020817190788F30E94763C803271
:207CA00009F045CF80910C0280FFF5C06091060170910701660F771F709307016093060153
:207CC000A0910802B09109021097C9F0E8E0F1E09B01AD014E0F5F1FF999FECF32BD21BDD3
:207CE000819180BDFA9AF99A2F5F3F4FE417F50799F76A0F7B1F7093070160930601809142
:207D0000C00085FFFCCFF092C6008091C00085FFFCCFB092C600E1CE83E00E94C73CDDCE82
:207D200082E00E94C73CD9CE0E94763C809309020E94763C80930802809106019091070171
:207D4000880F991F90930701809306010E94763C853409F49AC080910C028E7F80930C02DE
:207D60000E94763C803209F0B8CE8091C00085FFFCCFF092C600A0910802B09109021097E8
:207D8000C1F180910C02082F0170182F16951170E0910601F0910701AF014F5F5F4FBA012F
:207DA00020E030E00023B1F4112339F494918091C00085FFFCCF9093C6002F5F3F4FCB0174
:207DC0000196FA012A173B0780F4BC014F5F5F4F002351F3F999FECFF2BDE1BDF89A90B517
:207DE0008091C00085FFFCCFE6CF70930701609306018091C00085FDE5CE8091C00085FF4E
:207E0000F8CFE0CE81E00E94C73C67CE0E94763C803209F08CCE8091C00085FFFCCFF092B7
:207E2000C6008091C00085FFFCCFE092C6008091C00085FFFCCFD092C6008091C00085FF87
:207E4000FCCFC092C6008091C00085FFFCCFB092C60043CE80E10E94C73C3FCE0E94763C9F
:207E60000E94763C182F0E94763C112309F483C0113009F484C08FE00E94C73C2ECE8091FC
:207E80000C02816080930C02F1CE80910C02816080930C0265CF809107018823880F880BD0
:207EA0008A2180930B028091060190910701880F991F90930701809306018091080280FF88
:207EC00009C0809108029091090201969093090280930802F894F999FECF1127E091060115
:207EE000F0910701C8E0D1E08091080290910902103091F40091570001700130D9F303E05B
:207F000000935700E8950091570001700130D9F301E100935700E895099019900091570031
:207F200001700130D9F301E000935700E8951395103498F011270091570001700130D9F389
:207F400005E000935700E8950091570001700130D9F301E100935700E8953296029709F0DC
:207F6000C7CF103011F00296E5CF11248091C00085FFC5CEC8CE8EE10E94C73CAECD85E92E
:0C7F80000E94C73CAACDF894FFCF8000FF
:00000001FF
