:020000040000FA
:100000000C9442050C946A050C946A050C946A05DC
:100010000C946A050C946A050C946A050C946A05A4
:100020000C946A050C946A050C946A050C946A0594
:100030000C946A050C946A050C946A050C946A0584
:100040000C9401160C946A050C94CF150C94A91508
:100050000C946A050C946A050C946A050C946A0564
:100060000C944B160C946A05000103070F1F3F7F89
:100070000080C0E0F0F8FCFE00000000003E5B4F96
:100080005B3E3E6B4F6B3E1C3E7C3E1C183C7E3CF8
:10009000181C577D571C1C5E7F5E1C00183C180006
:1000A000FFE7C3E7FF0018241800FFE7DBE7FF3096
:1000B000483A060E2629792926407F050507407F04
:1000C00005253F5A3CE73C5A7F3E1C1C08081C1C77
:1000D0003E7F14227F22145F5F005F5F06097F016D
:1000E0007F006689956A606060606094A2FFA29458
:1000F00008047E040810207E201008082A1C080826
:100100001C2A08081E101010100C1E0C1E0C303873
:100110003E3830060E3E0E06000000000000005F74
:1001200000000007000700147F147F14242A7F2A90
:100130001223130864623649562050000807030052
:10014000001C2241000041221C002A1C7F1C2A089E
:10015000083E080800807030000808080808000001
:1001600060600020100804023E5149453E00427F75
:10017000400072494949462141494D331814127FC4
:100180001027454545393C4A494931412111090764
:100190003649494936464949291E000014000000E5
:1001A00040340000000814224114141414140041B7
:1001B00022140802015909063E415D594E7C121174
:1001C000127C7F494949363E414141227F414141AC
:1001D0003E7F494949417F090909013E4141517327
:1001E0007F0808087F00417F41002040413F017F98
:1001F000081422417F404040407F021C027F7F0460
:1002000008107F3E4141413E7F090909063E4151A8
:10021000215E7F09192946264949493203017F0198
:10022000033F4040403F1F2040201F3F4038403F99
:10023000631408146303047804036159494D4300AF
:100240007F4141410204081020004141417F0402E6
:10025000010204404040404000030708002054547D
:1002600078407F284444383844444428384444285B
:100270007F385454541800087E090218A4A49C78AE
:100280007F0804047800447D40002040403D007F0A
:100290001028440000417F40007C047804787C08EA
:1002A0000404783844444438FC18242418182424BE
:1002B00018FC7C08040408485454542404043F44A3
:1002C000243C4040207C1C2040201C3C4030403CD2
:1002D00044281028444C9090907C4464544C440032
:1002E0000836410000007700000041360800020196
:1002F0000204023C2623263C1EA1A161123A404082
:10030000207A3854545559215555794122545478FE
:1003100042215554784020545579400C1E52721297
:100320003955555559395454545939555454580020
:1003300000457C410002457D420001457C407D1224
:1003400011127DF0282528F07C5455450020545486
:100350007C547C0A097F4932494949323A44444431
:100360003A324A4848303A4141217A3A424020786C
:10037000009DA0A07D3D4242423D3D4040403D3C6D
:1003800024FF2424487E4943662B2FFC2F2BFF0992
:1003900029F620C0887E0903205454794100004486
:1003A0007D413048484A32384040227A007A0A0A71
:1003B000727D0D19317D2629292F282629292926E4
:1003C00030484D4020380808080808080808382F29
:1003D00010C8ACBA2F102834FA00007B00000814B3
:1003E0002A142222142A14085500550055AA55AA89
:1003F00055AAFF55FF55FF000000FF00101010FF29
:1004000000141414FF001010FF00FF1010F010F083
:10041000141414FC001414F700FF0000FF00FF1474
:1004200014F404FC141417101F10101F101F1414C0
:10043000141F00101010F0000000001F101010100A
:100440001F10101010F010000000FF1010101010FE
:1004500010101010FF10000000FF140000FF00FF3C
:1004600000001F10170000FC04F4141417101714D8
:1004700014F404F40000FF00F714141414141414FA
:10048000F700F7141414171410101F101F1414146D
:10049000F4141010F010F000001F101F0000001FD7
:1004A00014000000FC140000F010F01010FF10FF0A
:1004B000141414FF141010101F00000000F010FF9F
:1004C000FFFFFFFFF0F0F0F0F0FFFFFF0000000083
:1004D00000FFFF0F0F0F0F0F3844443844FC4A4A07
:1004E0004A347E02020606027E027E0263554941BC
:1004F000633844443C04407E201E2006027E0202F3
:1005000099A5E7A5991C2A492A1C4C7201724C3006
:100510004A4D4D303048784830BC625A463D3E49DD
:100520004949007E0101017E2A2A2A2A2A44445F81
:10053000444440514A444040444A51400000FF0175
:1005400003E080FF000008086B6B08361236243683
:10055000060F090F060000181800000010100030E8
:1005600040FF0101001F01011E00191D1712003C70
:100570003C3C3C00000000000000000800020100BC
:10058000000304070000000000000000DB40A4A6F8
:100590002EAF2000A1C8D300408DAED580A80000AA
:1005A000600000000000000000000000000000E00B
:1005B0000000000000000000000000000001E0005A
:1005C00000000000000000000000000001F000003A
:1005D000000000000000000000000003F000000028
:1005E0000000000000000000000007F00000000014
:1005F00000000000000000000007F80000000000FC
:1006000000000000000000000FF800000003C00020
:100610007E000001E0007F0FF800000003C000FE34
:10062000000001E000FFEFF800000003C000FE0042
:100630000001E000FFFFF800000003C000F0000030
:10064000000F007FFE7FC0000003C000F00000002C
:100650000F003FFE7FF83FF1FBCFFCFEF3BC3DEF08
:10066000E01FFE7FFF7FFBFFDFFEFEFFBC3DEFE0F4
:100670001FC6FFFF7FFBFFDFFEFEFFBC3DEFE00F6D
:10068000E3C7FE787BC3DE1EF0FFBC3DEF0007FF33
:1006900087FC787BC3DE1EF0F83C3DEF0001FFFFD6
:1006A000F0007BC3C01EF0F03C3DEF0001F37FE0A3
:1006B0003FFBC3CFFEF0F03C3DEF0003E33F807F04
:1006C000FBC3DFFEF0F03C3DEF0007E73C00787B2A
:1006D000C3DE1EF0F03C3DEF0007FFBE00787BC399
:1006E000DE1EF0F03C3DEF0007FFFE00787BC3DE2E
:1006F0001EF0F03C3DEF000FFFFE007FFBFFDFFE32
:10070000F0F03FFDEFE00FFFFF007FFBFFDFFEF0AB
:10071000F03FFDEFE00FF9FF003E79F9CF9EF0F0DA
:100720001F3DE7E01FF1FF00000000000000000097
:100730000000001F80FF007FFFFFFFFFFFFFFFFFA4
:10074000FFE01C007F007FFFFFFFFEB46D888D1867
:10075000E000001F007FFFFFFFFE95AD7DB577E055
:1007600000000F007FFFFFFFFEA5AD9D8D19E0008B
:100770000006007FFFFFFFFEB5ADEDB57EE0000097
:100780000000000180000000000000000000038065
:1007900000000000000000000007C0000000000092
:1007A0000000000007C00000000000000000000F73
:1007B000C00000000000000000001FE0000000007A
:1007C00000000000001FE00000000000000000002A
:1007D0003FE00000000000000000003FF0000000CB
:1007E0000000000000007FF0000000000000001F7B
:1007F000F87FF0000000000000003FFE7FF00000E6
:1008000000000000003FFF7FF0000000000000003B
:100810001FFFFBE0000000000000000FFFF9FFC019
:100820000000000000000FFFF9FFF80000000000CA
:100830000007FFF1FFFF00000000000003FC73FF52
:10084000FF80000000000001FE3FFFFF800000006D
:10085000000000FF1E0FFF000000000000007FFEF0
:100860001FFC000000000000003FFFFFF800000038
:10087000000000000FDFFFE0000000000000001F8C
:1008800019FFC0000000000000003F3CFF00000016
:1008900000000000007E7CF8000000000000000066
:1008A0007FFE7C0000000000000000FFFFFC000055
:1008B000000000000000FFFFFE000000000000003C
:1008C00000FFFFFE0000000000000001FFEFFE003F
:1008D00000000000000001FFCFFE0000000000004B
:1008E0000003FF07FE0000000000000003FC07FEFD
:1008F0000000000000000003F003FE000000000004
:100900000000018000FE0000000000000000000068
:100910007E000000000000000000003E000000001B
:100920000000000000000C00000000000007800034
:10093000FC000003C0000000078001FC000003C0B1
:10094000000000078001FC000003C00000000780D9
:1009500001E00000001E000000078001E000000030
:100960001E007FE3F79FF9FDE7787BDFC0FFF7FF0D
:10097000BFFDFDFF787BDFC0FFF7FFBFFDFDFF7808
:100980007BDFC0F0F787BC3DE1FF787BDE00F0F74E
:1009900087BC3DE1F0787BDE0000F787803DE1E039
:1009A000787BDE007FF7879FFDE1E0787BDE00FF4C
:1009B000F787BFFDE1E0787BDE00F0F787BC3DE123
:1009C000E0787BDE00F0F787BC3DE1E0787BDE007D
:1009D000F0F787BC3DE1E0787BDE00FFF7FFBFFD6D
:1009E000E1E07FFBDFC0FFF7FFBFFDE1E07FFBDF62
:1009F000C07CF3F39F3DE1E03E7BCFC000000000F0
:100A000000000000000000FFFFFFFFFFFFFFFFFFEF
:100A1000FFC0FFFFFFFFFD68DB111A31C0FFFFFFC2
:100A2000FFFD2B5AFB6AEFC0FFFFFFFFFD4B5B3B57
:100A30001A33C0FFFFFFFFFD6B5BDB6AFDC00000E8
:100A40000000250028002B000000000024002700E3
:100A50002A00040404040404040402020202020240
:100A60000303030303030102040810204080010272
:100A7000040810200102040810202200FF210000B9
:100A80006A17521D11241FBECFEFD8E0DEBFCDBFC5
:100A900011E0A0E0B1E0ECEBF2E402C005900D92B1
:100AA000A63CB107D9F723E0A6ECB1E001C01D9246
:100AB000A339B207E1F715E0C1E4D5E004C02197FE
:100AC000FE010E941A20C034D107C9F70E94051800
:100AD0000C9451210C94000090E0FC01EA59F54F70
:100AE00024918E5A954FFC018491882399F090E0CF
:100AF000880F991FFC01E85BF54FA591B491FC01AB
:100B0000E25CF54F859194918FB7F894EC91E22BCC
:100B1000EC938FBF0895089508950895AF92BF9202
:100B2000CF92DF92EF92FF920F931F93CF93DF93B9
:100B30006C017B018B01040F151FEB015E01AE18E8
:100B4000BF08C017D10759F06991D601ED91FC910A
:100B50000190F081E02DC6010995892B79F7C50137
:100B6000DF91CF911F910F91FF90EF90DF90CF9089
:100B7000BF90AF900895FC01538D448D252F30E038
:100B8000842F90E0821B930B541710F0CF9608959A
:100B900001970895FC01918D828D981761F0A28DC7
:100BA000AE0FBF2FB11D5D968C91928D9F5F9F738D
:100BB000928F90E008958FEF9FEF0895FC01918D43
:100BC000828D981731F0828DE80FF11D858D90E0B0
:100BD00008958FEF9FEF0895FC01918D228D892F4D
:100BE00090E0805C9F4F821B91098F739927089535
:100BF00086E992E00E94EC0521E0892B09F420E0CF
:100C0000822F089580E090E0892B29F00E94F8055A
:100C100081110C9400000895FC01A48DA80FB92F38
:100C2000B11DA35ABF4F2C91848D90E001968F7314
:100C30009927848FA689B7892C93A089B1898C9133
:100C4000837080648C93938D848D981306C0028882
:100C5000F389E02D80818F7D80830895EF92FF924C
:100C60000F931F93CF93DF93EC0181E0888F9B8DCF
:100C70008C8D98131AC0E889F989808185FF15C089
:100C80009FB7F894EE89FF896083E889F9898081AC
:100C90008370806480839FBF81E090E0DF91CF917B
:100CA0001F910F91FF90EF900895F62E0B8D10E09D
:100CB0000F5F1F4F0F731127E02E8C8D8E110CC00C
:100CC0000FB607FCFACFE889F989808185FFF5CF57
:100CD000CE010E940C06F1CFEB8DEC0FFD2FF11D24
:100CE000E35AFF4FF0829FB7F8940B8FEA89FB8994
:100CF00080818062CFCFCF93DF93EC01888D8823F2
:100D0000B9F0AA89BB89E889F9898C9185FD03C06E
:100D1000808186FD0DC00FB607FCF7CF8C9185FF53
:100D2000F2CF808185FFEDCFCE010E940C06E9CF86
:100D3000DF91CF91089590E0FC01E858FA4F24919B
:100D4000FC01EA59F54F3491FC01EE5AF54FE4915C
:100D5000EE23C9F0222339F0233001F1A8F4213029
:100D600019F1223029F1F0E0EE0FFF1FE25CF54FA0
:100D7000A591B4918FB7F894EC91611126C030958C
:100D80003E233C938FBF08952730A9F02830C9F047
:100D9000243049F7809180008F7D03C080918000CE
:100DA0008F7780938000DFCF84B58F7784BDDBCFD2
:100DB00084B58F7DFBCF8091B0008F778093B0009A
:100DC000D2CF8091B0008F7DF9CF3E2BDACF20912A
:100DD000000190E4299F900111248E50822B809372
:100DE0007C0080917A00806480937A0080917A0000
:100DF00086FDFCCF809178009091790008953FB7EF
:100E0000F89480917B0290917C02A0917D02B09138
:100E10007E0226B5A89B05C02F3F19F00196A11DA3
:100E2000B11D3FBFBA2FA92F982F8827BC01CD0134
:100E3000620F711D811D911D42E0660F771F881F93
:100E4000991F4A95D1F708958F929F92AF92BF92C2
:100E5000CF92DF92EF92FF924B015C010E94FF065E
:100E60006B017C010E94FF066C197D098E099F09A8
:100E7000683E734081059105A8F321E0821A91082C
:100E8000A108B10888EEC80E83E0D81EE11CF11C51
:100E900081149104A104B10429F7FF90EF90DF9031
:100EA000CF90BF90AF909F908F9008950895FC01D0
:100EB0006370668B8481958126813781613039F03A
:100EC000633029F09187808733872287089531879F
:100ED00020879387828708952F923F924F925F9247
:100EE0006F927F928F929F92AF92BF92CF92DF923A
:100EF000EF92FF920F931F93CF93DF93CDB7DEB79F
:100F00006A970FB6F894DEBF0FBECDBF9A8F898F58
:100F10007A8369834A01D22E18870F833701BC2C4C
:100F2000DC0159962D913C915A972115310509F014
:100F300015C118968D919C911997681779070CF037
:100F4000D7C11A968D919C91481759070CF0D0C1C2
:100F50004C2C512CB6E0CB9E600D711D11247C876A
:100F60006B87161617060CF0C3C1EA2DF0E0FA875E
:100F7000E98793E0EE0FFF1F9A95E1F7F88BEF8773
:100F8000CF01840F951F181619060CF0B1C1A98D59
:100F9000BA8D58968C91811104C0BFEABD1508F432
:100FA000D394A98DBA8DED91FC9111970284F385AC
:100FB000E02DCD010995B5E0DB9EC0011124E9814A
:100FC000FA81FC83EB83312C212C9C0128583F4F64
:100FD000388F2F8B4A2D50E05E8B4D8BEF89F88D2B
:100FE000E20DF31D44919E828D82D12CC12C69812A
:100FF0007A81620D731D7A8B698B842F90E09C8BB4
:101000008B8BE98DFA8DA081B18140FF82C0F1E028
:10101000BF126FC0AF126DC01C96ED91FC912F8175
:101020003885A4014C0D5D1D69897A89898D9A8D59
:101030000995EB89FC89F595E7954E2F5FEFC51A69
:10104000D50A6D817E818D899E89680F791F7E8387
:101050006D8398E0C916D10481F6AFEF2A1A3A0AD7
:10106000EB81FC81E40DF51DFC83EB83F5E02F168D
:10107000310409F0B3CF2F81388526153705B9F033
:10108000A98DBA8DED91FC91B1E0BB1257C0AB12A6
:1010900055C069817A816B5F7F4F0088F189E02DAF
:1010A000830128E030E0A401898D9A8D0995A98DEE
:1010B000BA8DED91FC9111970688F789E02DCD014D
:1010C0006A960FB6F894DEBF0FBECDBFDF91CF9109
:1010D0001F910F91FF90EF90DF90CF90BF90AF9056
:1010E0009F908F907F906F905F904F903F902F9048
:1010F00009941E96ED91FC91EF80F88409851A857C
:1011000092014D815E816B817C81898D9A8D0995DB
:1011100090CF2F8138852615370509F48ACF31E025
:10112000B31207C0A31205C01C96ED91FC91930168
:1011300078CF1E96ED91FC917301E0CF6B857C8595
:10114000641975090684F785E02D73010F851889E8
:101150009201A401898D9A8D0995A9CFF901349640
:101160009491329745915491D91AB7E0DB9E400D86
:10117000511D1124F901259134913C8B2B8BFA01DF
:1011800025903490FA013296749031963491398BCF
:10119000329664903196449041E04C1518F04A150F
:1011A00008F07FC0662D062C000C770B7C836B83C8
:1011B000842D042C000C990B9E838D83A98DBA8DF0
:1011C000ED91FC9111970284F385E02DCD010995F5
:1011D000512CD12CC12CEA2DF0E0FA87E9872B2D78
:1011E00030E03C872B87A401440D511D47FC5A95E4
:1011F000588F4F8B69817A81660D711D67FC7A95D6
:101200007E876D877989C71608F051CF2C2D30E085
:101210004D815E81420F531FA985BA854A9FC00147
:101220004B9F900D5A9F900D1124FC01E80DF91D64
:10123000F88BEF87852D612C4F89588D420F531FF6
:101240005E8B4D8B671408F050C044244394480EC5
:10125000877041F4C1010196EB89FC89E20DF31D11
:10126000D4901C01D7FE19C0A98DBA8DED91FC91C7
:10127000662D70E0B1E0BB1219C0AB1217C02D850E
:101280003E85620F731F0484F585E02D2F8138851C
:101290004D895E89898D9A8D0995DD0C6394842D25
:1012A000D1CF1E821D821C821B8288CF4B815C8124
:1012B000640F751FAB85BC856A9FC0016B9F900D45
:1012C0007A9F900D112469817A81680F791F0684B5
:1012D000F785E02DEF80F88409851A859D014F85FB
:1012E0005889898D9A8D0995D8CF570CC3948ACF88
:1012F0006A960FB6F894DEBF0FBECDBFDF91CF91D7
:101300001F910F91FF90EF90DF90CF90BF90AF9023
:101310009F908F907F906F905F904F903F902F9015
:1013200008958F929F92AF92CF92EF92FF920F9378
:101330001F93CF93DF93EC01262F898D9A8D009711
:1013400009F051C06A30D1F41D861C868D8948E0B1
:10135000849F900111248E859F85820F931F9F8704
:101360008E8781E090E0DF91CF911F910F91FF90E8
:10137000EF90CF90AF909F908F9008956D3089F34C
:10138000CC88AD888F898823C1F08C859D8536E017
:10139000C39E800D911D1124488559854817590712
:1013A00064F44E855F851D861C8638E0A39EC001CF
:1013B0001124840F951F9F878E87EA88FB880889F0
:1013C00019894E855F856C857D85CE010E946C07ED
:1013D0002C898C859D8546E0249F800D911D1124CC
:1013E0009D878C87BECF6A3069F41D861C86FC0100
:1013F0003896E4912D898E859F85E29F800D911D01
:101400001124ADCF6D3009F4ACCFFC01349634918A
:10141000631708F4A6CF3296E491E61708F4A1CF3B
:10142000FC01329685909490462F431B342F47E061
:10143000349F800C911C1124F40132963491319622
:10144000E4913323A9F1EE2399F1CC88F401359688
:10145000E491AD884F89442301F10E2E000CFF0B5F
:10146000E30FF11DCE9EA001CF9E500D11246C857F
:101470007D85460F571F68857985641775076CF45D
:101480004E855F851D861C86FC013896E491AE9ED4
:10149000400D511D11245F874E87EA88FB8808891B
:1014A00019894E855F856C857D85CE010E946C070C
:1014B000F4013496E4912C898C859D85E29F800D02
:1014C000911D11248DCF6F927F928F929F92AF9238
:1014D000BF92CF92DF92EF92FF920F931F93CF9321
:1014E000DF93EC016B015A0139014801E881F98170
:1014F0000284F385E02D0995E881F9810288F3895A
:10150000E02D87019301A501B601CE010995A50142
:10151000480D591D41505109E881F9810288F3892C
:10152000E02D9301B601CE010995E881F98100888B
:10153000F189E02D9401A501B601CE010995C60CF3
:10154000D71CB60161507109E881F9810088F189E1
:10155000E02D9401A501CE010995E881F981068865
:10156000F789E02DCE01DF91CF911F910F91FF9070
:10157000EF90DF90CF90BF90AF909F908F907F9033
:101580006F9009946F927F928F929F92AF92BF92C9
:10159000CF92DF92EF92FF920F931F93CF93DF933F
:1015A0005C01EB016A01490138018701DC01ED9121
:1015B000FC916217730719F5641675062CF0962DC9
:1015C000872D3A01C92ED82E9601261937092F5F8B
:1015D0003F4F048CF58DE02DA301BE01C501099597
:1015E000DF91CF911F910F91FF90EF90DF90CF90FF
:1015F000BF90AF909F908F907F906F900895461509
:10160000570591F42617370724F0892D4B01C22F77
:10161000D82F9E01281939092F5F3F4F068CF78D6F
:10162000E02DA601B401DACF0284F385E02D0995FF
:10163000D501ED91FC910488F589E02D8301940199
:10164000A601BE01C5010995D501ED91FC91068861
:10165000F789E02DC501DF91CF911F910F91FF9088
:10166000EF90DF90CF90BF90AF909F908F907F9042
:101670006F900994EF92FF920F931F93DC011A96DB
:101680000D911C911B9718962D913C911997ED91F6
:10169000FC9100A0F1A1E02D7B0150E040E070E062
:1016A00060E009951F910F91FF90EF9008954F9280
:1016B0005F926F927F928F929F92AF92BF92CF92E2
:1016C000DF92EF92FF920F931F93CF93DF936C0102
:1016D0002B015A0139014801DC01ED91FC91028492
:1016E000F385E02D0995E201640C751CD601ED919E
:1016F000FC91C615D7055CF40088F189E02D8701BF
:101700009401A501BE01C60109952196EFCF068877
:10171000F789E02DC601DF91CF911F910F91FF90C6
:10172000EF90DF90CF90BF90AF909F908F907F9081
:101730006F905F904F9009948F929F92AF92BF925B
:10174000CF92DF92EF92FF920F931F93CF93DF938D
:10175000EC015B014A016901E881F9810284F385AA
:10176000E02D099595012C0D3D1D21503109E88191
:10177000F9810488F589E02D78018401A401B5017F
:10178000CE010995E881F9810688F789E02DCE011F
:10179000DF91CF911F910F91FF90EF90DF90CF904D
:1017A000BF90AF909F908F9009948F929F92AF922D
:1017B000BF92CF92DF92EF92FF920F931F93CF933E
:1017C000DF93EC015B014A0169017801E881F9814D
:1017D0000284F385E02D0995C80CD91C86010150BF
:1017E0001109E881F9810488F589E02D9501A401AA
:1017F000B501CE010995E881F9810688F789E02DC8
:10180000CE01DF91CF911F910F91FF90EF90DF906C
:10181000CF90BF90AF909F908F900994EF92FF92DE
:101820000F931F93DC01ED91FC9100A0F1A1E02D3D
:1018300009951F910F91FF90EF9008950F931F93BB
:10184000DC01ED91FC91068CF78DE02D09951F913F
:101850000F9108950F931F93DC01ED91FC91048C7F
:10186000F58DE02D09951F910F910895DC01ED9103
:10187000FC910084F185E02D09943F924F925F9294
:101880006F927F928F929F92AF92BF92CF92DF9290
:10189000EF92FF920F931F93CF93DF935C017B0135
:1018A0004A016901390187E0680E711C93E0759463
:1018B00067949A95E1F72B01400E511E10E000E06D
:1018C000312CD0E0C0E0CE0187709927330C892BF2
:1018D00059F4FE0183E0F595E7958A95E1F7E00F6D
:1018E000F11FE80DF91D349037FE0AC021E030E009
:1018F000A701B5016C0F7D1F8FE493E00E94360CA9
:101900002196CC16DD06F9F68FEFE81AF80A060DD7
:10191000171DE414F504A9F6DF91CF911F910F91E3
:10192000FF90EF90DF90CF90BF90AF909F908F90FF
:101930007F906F905F904F903F9008952F923F92CD
:101940004F925F926F927F928F929F92AF92BF92CF
:10195000CF92DF92EF92FF920F931F93CF93DF937B
:1019600000D000D000D0CDB7DEB73C016A013E8385
:101970002D83FC82EB825801A41AB50AB7FE03C07E
:10198000B194A194B1088D809E80861A970A97FE23
:1019900003C09194819491088A149B045CF0902F69
:1019A000812F0D811E819D838E839C2D8D2D6B013A
:1019B000692F782F0C151D055CF09D818E817E832B
:1019C0006D83692F782F902F812F8601C92ED82EF5
:1019D0001601201A310A2B012D813E81421A530A29
:1019E00057FE03C0519441945108710137FE03C062
:1019F0003FEFE31AF30AF594E7948D819E818617F1
:101A000097075CF5A1E0B0E0BA83A983C016D106C0
:101A10004CF1D301ED91FC910484F585E02D2B81EF
:101A20003C81A8016D817E818A149B041CF04D814C
:101A30005E81B801C3010995E418F508F7FE0AC0F4
:101A40002D813E8189819A81280F391F3E832D8304
:101A5000E20CF31C0F5F1F4FD9CF2FEF3FEF3A83FC
:101A60002983D4CF26960FB6F894DEBF0FBECDBF24
:101A7000DF91CF911F910F91FF90EF90DF90CF906A
:101A8000BF90AF909F908F907F906F905F904F909E
:101A90003F902F900895EF92FF920F931F93CF9353
:101AA000DF93EC01EC80FD806E157F050CF070C0BB
:101AB00057FF04C0240F351F50E040E08E819F8106
:101AC000FA01E20FF31F8E179F071CF49C01241BE1
:101AD000350B121613060CF05BC0922F842F8695DF
:101AE000869586958E9DD0018F9DB00D11246A0F2D
:101AF0007B1FAF8DB8A1A60FB71F477049F188E0D3
:101B0000841B482F682F70E0FB01E059FF4FE491E0
:101B1000281708F063C0621B71092FEF30E002C084
:101B2000359527956A95E2F7E2230130110539F0E2
:101B3000B0F10230110561F58C91E82702C08C915B
:101B4000E82BEC93941720F12C813D81A20FB31F59
:101B5000E92FE41BE83078F00230110521F58E2FD3
:101B60009C9190959C932C813D81A20FB31F88502E
:101B70008830B0F7E770EE2359F0F0E0E859FF4FF6
:101B8000E49101301105F9F010F10230110519F15D
:101B9000DF91CF911F910F91FF90EF900895E09505
:101BA0008C91E823CECF81E00115110509F480E086
:101BB00081959E2F8C932C813D81A20FB31F98504D
:101BC0009830C0F7D7CF8C91E82BEC93E1CFE0951C
:101BD0008C91E823FACF8C91E827F7CF01301105DB
:101BE00009F4ADCFE0F20230110509F4A5CFAE0D36
:101BF000BF1DAECF0F931F93CF93DF9377FF04C02A
:101C0000260F371F70E060E0DC011496CD91DC9167
:101C1000FB01E20FF31FCE17DF071CF49E01261B0A
:101C2000370B121613064CF5FA0157FD3796A3E051
:101C3000F595E795AA95E1F7EC9FD001ED9FB00DE2
:101C4000FC9FB00D11246A0F7B1FDC015F96ED91A4
:101C5000FC91E60FF71F4770552781E090E001C027
:101C6000880F4A95EAF7482F0130110559F0A8F07E
:101C70002E0F3F1F02301105E1F0DF91CF911F9130
:101C80000F9108952E0F3F1FE217F307B1F38191D3
:101C9000DF011197842B8C93F7CF80952E0F3F1F78
:101CA000E217F30751F39191DF01119798239C9369
:101CB000F7CFE217F30709F38191DF01119784272A
:101CC0008C93F7CF0F931F93FA01DC0156964C913A
:101CD00056974230E9F04330A1F1413061F5149656
:101CE0004D915C91DA01AE1BBF0BFD01E21BF30BC2
:101CF00077FD0BC0DC0116964D915C91641775075A
:101D000024F4AB01BF010E94FA0D1F910F910895B9
:101D100014964D915C91DA01A61BB70BBD01615081
:101D20007109DC0116964D915C91DA01AE1BBF0B77
:101D3000FD01E21BF30B77FDE8CFAF010E944B0DD5
:101D4000E4CF16964D915C91DA01A61BB70BBD014D
:101D500061507109CDCF0F931F93FA01DC015696A4
:101D60004C9156974230A9F0433091F1413019F52A
:101D700014964D915C91DA01AE1BBF0BFD013197BA
:101D8000F7FD04C0AB01BF010E944B0D1F910F91E5
:101D9000089514964D915C91DA01A61BB70BBD0115
:101DA000DC0116964D915C91DA01AE1BBF0BFD0173
:101DB0003197621B730BF7FDE9CFDC0116964D914D
:101DC0005C91E417F50714F7AF010E94FA0DDECF1E
:101DD00016964D915C91DA01A61BB70BBD01621BF3
:101DE000730BCECFFC0177FD64C0808591856817A9
:101DF00079070CF05EC057FD5CC08285938548175B
:101E000059070CF056C086898230B1F0833029F131
:101E1000813041F484819581841B950BAB01BC0119
:101E2000615071092130310509F108F443C02230B5
:101E3000310509F463C0089584819581DC01A61BF6
:101E4000B70BBD016150710986819781DC01A41B2C
:101E5000B50BAD0141505109E5CF86819781861BB5
:101E6000970BBA01AC0141505109DCCFCA0157FDB3
:101E70000796A3E095958795AA95E1F7A481B5818A
:101E80008A9F90018B9F300D9A9F300D1124620F15
:101E9000731F078CF0A1E02DE60FF71F4770552741
:101EA00021E030E001C0220F4A95EAF78081822BC1
:101EB00080830895CA0157FD079633E0959587956D
:101EC0003A95E1F7A481B5818A9F90018B9F300DEF
:101ED0009A9F300D1124620F731F078CF0A1E02D23
:101EE000E60FF71F4770552781E090E001C0880F8B
:101EF0004A95EAF7809590818923DACFCA0157FD88
:101F0000079623E0959587952A95E1F7A481B581F9
:101F10008A9F90018B9F300D9A9F300D1124620F84
:101F2000731F078CF0A1E02DE60FF71F47705527B0
:101F300021E030E001C0220F4A95EAF78081822734
:101F4000B7CF08958EBD00000DB407FEFDCF8EB54E
:101F500008958CBD9DBD0895089520912C02260FF3
:101F60003327331F21323105ECF420915002FC015C
:101F700090E080E0243069F082E00895A0912C0286
:101F80002191AC01445F5D4FA40FB52FB11D2C937F
:101F90000196861798F380912C02680F60932C02AB
:101FA00080E0089581E008951092500281E08093CE
:101FB00052021092510261E082E10E949B0661E0B0
:101FC00083E10E949B06E9EBF0E080818E7F8083B5
:101FD00080818D7F808388E48093B80085E480933E
:101FE000BC000895CF93DF9391E090930B02882378
:101FF000B9F0C091B800D091BA008091BC008A7B42
:102000008093BC0060E082E10E949B0660E083E177
:102010000E949B060E94D40FD093BA00C093B800D0
:10202000DF91CF910895E091850280918402E817B5
:1020300030F4F0E0EA51FE4F808190E008958FEF98
:102040009FEF089590918502809184022FEF3FEFDA
:10205000981748F4E92FF0E0EA51FE4F208130E074
:102060009F5F90938502C9010895809184029091A9
:102070008502891B990B0895CF92DF92EF92FF9210
:102080000F931F93CF93DF937C01CB018A012091A3
:102090009502222389F0EB016B01C40ED51ECC15ED
:1020A000DD0569F06991D701ED91FC910190F08116
:1020B000E02DC7010995F3CF642F0E94AD0FC80131
:1020C000DF91CF911F910F91FF90EF90DF90CF9014
:1020D0000895CF93DF931F92CDB7DEB76983209128
:1020E00095022223F9F020919202203258F021E04B
:1020F00030E0FC013383228390E080E00F90DF9199
:10210000CF91089580919302E82FF0E0EA53FE4FBB
:10211000998190838F5F809393028093920281E0F4
:1021200090E0ECCF61E0CE0101960E94AD0FF7CFB9
:10213000CF92DF92EF92FF920F931F93CF93DF9393
:10214000D091920281E0D13208F09CC0C0919402FB
:102150000E94FF066B017C018091500281116CC0CE
:1021600082E08093500281E0809352028FEF80934F
:102170004F0210927402D0937302A6ECB1E0E3E533
:10218000F2E080E0D8138DC0109275028091750244
:10219000CC0FC82BC093750280915102813009F099
:1021A00084C0109251020E94FF066B017C01809155
:1021B00075028093BB008091070290910802A09164
:1021C0000902B0910A02892B8A2B8B2BA1F00E9465
:1021D000FF06009107021091080220910902309138
:1021E0000A026C197D098E099F090617170728072F
:1021F000390708F442C08091BC0083FDD8CF85EC3C
:102200008093BC000E94FF066B017C01809150020C
:10221000823009F44CC080914F028F3F09F469C0AD
:1022200080914F02803209F466C080914F02803362
:1022300009F463C084E026C08091070290910802EF
:10224000A0910902B0910A02892B8A2B8B2B09F4E9
:1022500083CF0E94FF06009107021091080220918F
:10226000090230910A026C197D098E099F0906172F
:1022700017072807390708F06FCF809106020E94E0
:10228000F20F85E010929302109292021092950242
:10229000DF91CF911F910F91FF90EF90DF90CF9042
:1022A00008959D9191938F5F6DCF85EEA9CF809119
:1022B000070290910802A0910902B0910A02892BAD
:1022C0008A2B8B2B09F4A2CF0E94FF0600910702F4
:1022D000109108022091090230910A026C197D09BF
:1022E0008E099F09061717072807390708F08ECFB0
:1022F000C4CF80E0C7CF82E0C5CF83E0C3CFEF92E9
:10230000FF920F931F93CF93DF937C01C62F809191
:102310006C0390916D03009709F459C020917003EC
:1023200031E0309395022093940210929302109220
:102330009202DC01ED91FC910190F081E02D60E0D2
:1023400009958701EE24E394F12CD1E0C1508091EE
:102350006C0390916D03CF3F91F1B0E2EB16F10465
:10236000D8F00E94981080916C0390916D03209199
:102370007003D093950220939402109293021092CE
:102380009202DC01ED91FC910190F081E02D60E082
:102390000995EE24E394F12C80916C0390916D03E8
:1023A000F8016491DC01ED91FC910190F081E02D48
:1023B0000995BFEFEB1AFB0A0F5F1F4FC7CFDF91E5
:1023C000CF911F910F91FF90EF900C949810E09196
:1023D0007C03F0917D039081809182038095892315
:1023E00080838701C15008F438C0F801849120919E
:1023F0006A0330916B03232B29F00E94A20F0F5F19
:102400001F4FF0CF28E030E040E8E0917803F091F2
:10241000790390918003582F5423D9F05081952B44
:102420009083E0917A03F0917B0390815091810336
:10243000952B9083E0917A03F0917B0350819091EA
:102440008103909595239083469521503109E9F6B3
:10245000D6CF508190959523E3CFDF91CF911F91F7
:102460000F91FF90EF9008951F93CF93DF93EC01AE
:102470008D8D9E8D009721F1162F29A131E030938B
:102480009502209394021092930210929202DC0122
:10249000ED91FC910190F081E02D60E009958D8D2A
:1024A0009E8DDC01ED91FC910190F081E02D612F7A
:1024B00009958D8D9E8DDF91CF911F910C94981071
:1024C000ADA5BEA59C918BA9809589238C938B8DFE
:1024D0009C8D892B31F0862FDF91CF911F910C9429
:1024E000A20F28E030E080E8A9A5BAA599A9462F57
:1024F0004823C1F04C91942B9C93ABA5BCA59C9117
:102500004AA9942B9C93ABA5BCA54C919AA99095F4
:1025100094239C9386952150310931F7DF91CF9117
:102520001F9108954C9190959423E6CFDF92EF92FE
:10253000FF920F931F93CF93DF9380916C03909141
:102540006D03892B09F498C0209184033091850391
:10255000409186035091870360E074E284EF90E03D
:102560000E94F81F2051310941095109569547959C
:10257000379527952093B80065E08AE79AE00E9496
:102580007F116091530361508FE493E00E943412F5
:102590002091550330915603C901079697FD079680
:1025A00033E0959587953A95E1F720915303309163
:1025B0005403829F8001839F100D929F100D112460
:1025C000C0916E03D0916F0380916C0390916D0365
:1025D0000C0F1D1F009709F48FC02091700331E08C
:1025E00030939502209394021092930210929202DB
:1025F000DC01ED91FC910190F081E02D60E4099502
:10260000EE24E394F12CDD24D39480916C0390911B
:102610006D030C171D0709F446C0B0E2EB16F10478
:10262000D8F00E94981080916C0390916D032091D6
:102630007003D0929502209394021092930210920C
:102640009202DC01ED91FC910190F081E02D60E4BB
:102650000995EE24E394F12C80916C0390916D0325
:102660006991DC01ED91FC910190F081E02D0995DB
:10267000BFEFEB1AFB0AC9CF80916A0390916B03FD
:10268000892B31F080918D0390918E030E94A90FC8
:10269000E0917E03F0917F03908180918303809588
:1026A0008923808369CF0E94981080916C03909158
:1026B0006D03892B09F461C020918803309189034F
:1026C00040918A0350918B0360E074E284EF90E0C4
:1026D0000E94F81F2051310941095109569547952B
:1026E000379527952093B800DF91CF911F910F91D7
:1026F000FF90EF90DF900895E0917C03F0917D03CF
:10270000808190918203892B80830C171D0769F2C9
:10271000899120916A0330916B03232B19F00E9459
:10272000A20FF3CF28E030E040E8E0917803F09189
:10273000790390918003582F5423D9F05081952B21
:102740009083E0917A03F0917B0390815091810313
:10275000952B9083E0917A03F0917B0350819091C7
:102760008103909595239083469521503109E9F690
:10277000CCCF508190959523E3CFE0917E03F091EB
:102780007F03808190918303892B8083ADCF1F933A
:10279000CF93DF93EC01162F8D8D9E8D892BB1F198
:1027A0002DA93EA94FA958AD60E074E284EF90E0F6
:1027B0000E94F81F2051310941095109569547954A
:1027C000379527952093B80066EA111167EACE0184
:1027D0000E9434128D8D9E8D892B41F129AD3AAD29
:1027E0004BAD5CAD60E074E284EF90E00E94F81FB6
:1027F000205131094109510956954795379527953B
:102800002093B800DF91CF911F9108958B8D9C8DFF
:10281000892B21F08EAD9FAD0E94A90FEFA5F8A9DD
:1028200090818CA9809589238083CECFEFA5F8A9CC
:1028300080819CA9892B8083E5CF90E080E008957A
:10284000FC0101900020E9F73197AF01481B590BBB
:10285000BC018FE493E00C948E058F929F92AF920F
:10286000BF920F931F93CF93DF93CDB7DEB7A1979E
:102870000FB6F894DEBF0FBECDBF19A2423008F4E8
:102880004AE08E010F5D1F4F842E912CB12CA12C9C
:10289000A50194010E94F81FE62FB901CA01EA3090
:1028A000F4F4E05DD801EE938D01232B242B252B2E
:1028B00079F790E080E0109719F0CD010E94201484
:1028C000A1960FB6F894DEBF0FBECDBFDF91CF91BA
:1028D0001F910F91BF90AF909F908F900895E95CEA
:1028E000E1CF0C9420144F925F926F927F928F925F
:1028F0009F92AF92BF92CF92DF92EF92FF920F938F
:102900001F93CF936B017C01742EAC019B010E943D
:10291000DE1F882399F087E591E0CF911F910F91F9
:10292000FF90EF90DF90CF90BF90AF909F908F90EF
:102930007F906F905F904F900C9420144601570148
:10294000E894B7F82FEF3FEF4FE75FE7C501B40119
:102950000E94DE1F81110DC02FEF3FEF4FE75FE7B1
:10296000C501B4010E94CE1D18161CF48BE591E040
:10297000D4CF2FEF3FEF4FE75FE4C701B6010E94CE
:10298000261F18161CF48FE591E0C7CF2FEF3FEFFD
:102990004FE75FECC701B6010E94CE1D87FDF3CF64
:1029A00020E030E0A901C701B6010E94CE1D10E071
:1029B00000E087FF0AC06DE28FE493E00E94910976
:1029C0008C01F7FAF094F7F8F094C0E060E070E062
:1029D00080E09FE37C1641F020E030E040E251E4EB
:1029E0000E94D31DCF5FF6CFA70196010E94621D02
:1029F0002B013C010E94451E4B015C014AE00E94F4
:102A00002D147C01E00EF11ECC23C1F1C501B401EF
:102A10000E94741E9B01AC01C301B2010E94611DA2
:102A20004B015C016EE28FE493E00E949109E80E95
:102A3000F91EC15018F120E030E040E251E4C50138
:102A4000B4010E942B1F2B013C010E94451E4B012B
:102A5000B12CA12C4AE0C501B4010E942D14E80E4E
:102A6000F91EC501B4010E94741E9B01AC01C30193
:102A7000B2010E94611D4B015C01DBCFC701CF9108
:102A80001F910F91FF90EF90DF90CF90BF90AF908C
:102A90009F908F907F906F905F904F9008952091BE
:102AA000550330915603C901079697FD079623E019
:102AB000959587952A95E1F720915303309154031A
:102AC000829FA001839F500D929F500D112470E0B2
:102AD00060E080916E0390916F030C944A210E94F4
:102AE000452185ED8093BC008091070290910802FA
:102AF000A0910902B0910A020796A11DB11D23E021
:102B0000B695A795979587952A95D1F72091BC0002
:102B100024FD03C010925002089540910702509185
:102B200008026091090270910A02452B462B472B3F
:102B300069F30097A105B10541F025E32A95F1F766
:102B400000000197A109B109E1CF809106020C9420
:102B5000F20F1F920F920FB60F9211242F933F93F3
:102B60004F935F936F937F938F939F93AF93BF9395
:102B7000EF93FF9386E992E00E940C06FF91EF919C
:102B8000BF91AF919F918F917F916F915F914F9185
:102B90003F912F910F900FBE0F901F9018951F928D
:102BA0000F920FB60F9211242F938F939F93EF9351
:102BB000FF93E091A602F091A7028081E091AC0220
:102BC000F091AD0282FD1BC090818091AF028F5FBA
:102BD0008F732091B002821741F0E091AF02F0E0D4
:102BE000EA56FD4F958F8093AF02FF91EF919F9131
:102BF0008F912F910F900FBE0F901F90189580818D
:102C0000F4CF1F920F920FB60F9211242F933F9380
:102C10008F939F93AF93BF938091770290917802A7
:102C2000A0917902B0917A023091760223E0230FCD
:102C30002D3758F50196A11DB11D20937602809382
:102C4000770290937802A0937902B0937A028091F0
:102C50007B0290917C02A0917D02B0917E02019650
:102C6000A11DB11D80937B0290937C02A0937D02F5
:102C7000B0937E02BF91AF919F918F913F912F9121
:102C80000F900FBE0F901F90189526E8230F029605
:102C9000A11DB11DD2CF1F920F920FB60F9211241A
:102CA0002F933F934F935F936F937F938F939F9354
:102CB000AF93BF93EF93FF938091B900887F8036E5
:102CC00009F44AC0F0F5883209F4A7C018F580313C
:102CD00009F49BC0B8F4882309F4F9C0883009F4DA
:102CE00094C0FF91EF91BF91AF919F918F917F9190
:102CF0006F915F914F913F912F910F900FBE0F9069
:102D00001F901895883109F488C0803251F780935C
:102D10004F0214C0803409F49DC040F48033B9F3ED
:102D20008833F9F680934F0285ECB0C0803509F402
:102D300085C0883509F496C0883499F60E947115CB
:102D4000D0CF883909F48CC038F5883729F050F491
:102D5000883611F0803729F683E080935002109274
:102D60004E0257C0883809F47BC0803919F080388A
:102D700009F0B7CF80914E02803208F071C0E09127
:102D80004E0281E08E0F80934E028091BB00F0E0F6
:102D9000E25DFD4F80833DC0803B39F0E0F4803A36
:102DA00009F479C0883A09F09CCF84E080935002FE
:102DB00010922D0210922C02E0918202F091830277
:102DC000099580912C0281110FC081E080932C0223
:102DD00010920C0209C0803C09F4A6CF883C09F48B
:102DE000A3CF883B09F07DCFE0912D0281E08E0FCB
:102DF00080932D02F0E0E45FFD4F80818093BB0063
:102E000090912D0280912C0229C0809175028093AF
:102E1000BB0085EC8093BC0064CF909174028091DC
:102E20007302981758F5E091740281E08E0F809339
:102E30007402F0E0ED5AFD4F8081E9CFE091740219
:102E400081E08E0F809374028091BB00F0E0ED5A18
:102E5000FD4F808390917402809173029817C8F29D
:102E600085E8D8CFE091740281E08E0F80937402E0
:102E70008091BB00F0E0ED5AFD4F808380915202BB
:102E800081115CCF81E08093510284EA8093BC0081
:102E90001092500226CF85EC8093BC001092500215
:102EA00080914E02803230F4E0914E02F0E0E25D1B
:102EB000FD4F108260914E0270E0E0918002F0912F
:102EC00081028EE292E0099510924E020ACF109292
:102ED0004F0234CFE6E9F2E01382128248EE53E06B
:102EE00060E070E044835583668377838BE091E0F4
:102EF0009183808385EC90E09587848784EC90E0D3
:102F00009787868780EC90E0918B808B81EC90E0B6
:102F1000938B828B82EC90E0958B848B86EC90E097
:102F2000978B868B118E128E138E148EA3E4B3E0D2
:102F300013961C921E92129714964D935D936D9367
:102F40007C9317978DE191E011969C938E93EFE41B
:102F5000F3E01382128220E830E03583248380E49A
:102F600090E0978386833187208793878287168AAC
:102F7000158614861786168681E0858B848B2FEF45
:102F80003FEF338B228B318B208B878B108E128EF1
:102F9000118E8FE291E091838083148E138EB68F11
:102FA000A58F10A2178E8FEF84A385A386A387A376
:102FB00080A780E89AE1A6E0B0E085AB96ABA7AB2E
:102FC000B0AF80EA96E8A1E0B0E081AF92AFA3AFE6
:102FD000B4AF80E586AF17AEEBE3F3E080E090E0BE
:102FE000A0E0BFE380839183A283B3831482158220
:102FF00016821782E3E3F3E080839183A283B38395
:1030000014821582168217820895CF93DF9300D021
:1030100000D0CDB7DEB7789484B5826084BD84B526
:10302000816084BD85B5826085BD85B5816085BDC3
:1030300080916E00816080936E001092810080917B
:103040008100826080938100809181008160809303
:103050008100809180008160809380008091B10028
:1030600084608093B1008091B00081608093B00053
:1030700080917A00846080937A0080917A008260E7
:1030800080937A0080917A00816080937A008091A9
:103090007A00806880937A001092C10080917A0053
:1030A000887F80937A0080917A00866080937A008E
:1030B00083E08093000180917E00886080937E0091
:1030C00080917E00806180937E0080917E0080628E
:1030D00080937E0080E10E94E70664EF71E080E06B
:1030E00090E00E94240780E10E94E706BC01990F4E
:1030F000880B990B0E94761E20E030E040E05FE3F1
:103100000E94621D2DEC3CEC4CE85FE30E942B1FFB
:1031100020E030E040E85AE30E942B1F2DEC3CEC0D
:103120004CE950E40E942B1F609386027093870243
:103130008093880290938902E091A602F091A70201
:1031400082E08083E091A202F091A3021082E091DC
:10315000A402F091A5028FEC80831092AE02E09160
:10316000AA02F091AB0286E08083E091A802F09180
:10317000A902808180618083E091A802F091A90278
:10318000808188608083E091A802F091A90280810B
:1031900080688083E091A802F091A90280818F7DF0
:1031A000808380916E0390916F03892B11F10E94AF
:1031B0004F15209155033091560380915303909100
:1031C0005403213231050CF0C3C0B90160527109BA
:1031D00077FF02C06F5F7F4F7595679583579109A1
:1031E00097FD019600E210E023E730E04EE955E05C
:1031F000C2C02091550330915603C901079697FD2F
:103200000796B3E095958795BA95E1F7209153031A
:1032100030915403AC01429FC001439F900D529FD7
:10322000900D11240E94202090936F0380936E03D1
:10323000892B09F0BCCF0E944F1581E08093630376
:103240008093640381E090E0909362038093610334
:103250009093600380935F0310925C0310925B0372
:1032600010925E0310925D0383E691E00E94711458
:1032700010925C0310925B0380E190E090935E03F8
:1032800080935D0389E791E00E94711410925C03C2
:1032900010925B0380E290E090935E0380935D0365
:1032A00082E991E00E947114609186027091870218
:1032B000809188029091890242E00E9473141092DA
:1032C0005C0310925B0380E390E090935E03809335
:1032D0005D0383EA91E00E9471148CEA91E00E9400
:1032E000711483EA91E00E9471140E94961268E8BA
:1032F00073E180E090E00E9424074CE3242E312CFF
:1033000004E210E08EE00E94E706BC01990F880BF2
:10331000990B0E94761E6B017C0120E030E040E8B2
:103320005FE30E94CE1D87FD0FC220E030EC4FE727
:1033300054E4C701B6010E94261F18160CF00AC2F9
:10334000C12C20ECD22E2FE7E22E24E4F22E02C272
:10335000B9016054710977FF02C06F5F7F4F7595A7
:1033600067958255910997FD019600E410E022E5EA
:1033700030E04EE757E0959587950E943D0C82E03E
:103380008093710380916C0390916D03892B09F4F4
:1033900097C08CE380937003109285021092840290
:1033A00010929302109292020E94D40F8CE895E042
:1033B00090938302809382028DE895E0909381023E
:1033C000809380028091770387FD1DC00E946C0569
:1033D00061E0809177030E949B0661E070E080E0ED
:1033E00090E00E94240760E0809177030E949B0692
:1033F0006AE070E080E090E00E94240761E0809144
:1034000077030E949B0680916C0390916D03892B3A
:1034100009F410C120918403309185034091860303
:103420005091870360E074E284EF90E00E94F81FFF
:1034300020513109410951095695479537952795EE
:103440002093B80064E08AE995E00E947F116091C2
:10345000550361508FE493E00E94341264E086E9E2
:1034600095E00E947F118091710364E1813009F43D
:1034700060E18FE493E00E94341264E082E995E019
:103480000E947F118FE880938C0380915303909169
:1034900054038038910509F0E6C08091550390915E
:1034A00056038034910509F03DC18091710381304C
:1034B00009F4D7C08FEC80938C0392E19983E8C024
:1034C000809175030E946C05809176030E946C05C3
:1034D00080917503082E000C990BFC01EE5AF54FF4
:1034E000E491F0E0EE0FFF1FE25CF54F259134917F
:1034F00030937D0320937C03FC01EA59F54FE4915E
:10350000E093820380917603082E000C990BFC0156
:10351000EE5AF54FE491F0E0EE0FFF1FE25CF54F3D
:10352000A591B491B0937F03A0937E03FC01EA5967
:10353000F54FE491E09383038C91E82BEC93809119
:103540006A0390916B03892B09F433C05FB75983E9
:10355000F89480917F02811124C0ECE5FAE0849117
:10356000E0E7FAE09491E82FF0E0EE0FFF1FE85B50
:10357000F54FA591B491EC91E92321F461E08AE043
:103580000E949B068AE00E946C058CB580618CBD10
:103590008CB580648CBD8DE00E946C058BE00E9430
:1035A0006C0580917F028F5F80937F0289818FBF3E
:1035B00009CF809173030E946C05809174030E946F
:1035C0006C0580917303082E000C990BFC01EE5AD8
:1035D000F54FE491F0E0EE0FFF1FE25CF54F25910F
:1035E00034913093790320937803FC01EA59F54F25
:1035F000E491E093800380917403082E000C990BF2
:10360000FC01EE5AF54FE491F0E0EE0FFF1FE25C93
:10361000F54FA591B491B0937B03A0937A03FC017D
:10362000EA59F54FE491E09381038C91E095E8230A
:10363000EC93C8CE80916A0390916B03892B31F093
:1036400080918D0390918E030E94A90FE0917E03DB
:10365000F0917F03908180918303809589238083FB
:10366000F1CE8FE928CF8036910509F05EC08091B8
:10367000550390915603409709F05AC08091710309
:10368000813009F44DC08FEA80938C0342E0498376
:103690006AED8FE493E00E94341269818FE493E035
:1036A0000E94341261E88FE493E00E94341260912A
:1036B0008C038FE493E00E94341269ED8FE493E071
:1036C0000E9434128091710361EF813009F462E24B
:1036D0008FE493E00E94341266E08CE895E00E944B
:1036E0007F1180916C0390916D03892B19F12091CA
:1036F00088033091890340918A0350918B0360E0E5
:1037000074E284EF90E00E94F81F205131094109D2
:10371000510956954795379527952093B8008BCD3D
:1037200080E1B2CF52E05983B3CF82E08983B0CF3A
:1037300092E0C4CEE0917E03F0917F03808190916E
:103740008303892B808377CDC12CD12C30E8E32EE5
:103750003FE3F32E20E030E040E05FE3C701B60135
:103760000E94621D2DEC3CEC4CE85FE30E942B1F95
:1037700020E030E040E85AE30E942B1F23E333E3CC
:1037800043E350E40E942B1F6B017C01AC019B01C1
:103790000E942B1F4B015C0120E030E040E45FE31E
:1037A000C701B6010E942B1F9B01AC01C501B401EA
:1037B0000E94621D2B013C0140928E0250928F02AA
:1037C0006092900270929102C0903B03D0903C03B3
:1037D000E0903D03F0903E03A701960160E070E0A9
:1037E00080E89FE30E94611D20913F0330914003D8
:1037F00040914103509142030E942B1F4B015C01F9
:10380000A3019201C701B6010E942B1F9B01AC01CD
:10381000C501B4010E94621D4B015C0180923F030F
:1038200090924003A0924103B09242038FE00E9425
:10383000E706BC01990F880B990B0E94761E20E0C9
:1038400030E040E05FE30E94621D2DEC3CEC4CE870
:103850005FE30E942B1F20E030E040E85AE30E9423
:103860002B1F23E333E343E350E40E942B1F6B0140
:103870007C01AC019B010E942B1F69837A838B839F
:103880009C8320E030E040E45FE3C701B6010E9482
:103890002B1F9B01AC0169817A818B819C810E94E5
:1038A000621D6B017C012AE037ED43E25CE30E947C
:1038B000CE1D87FD4BC0C0928A02D0928B02E0924F
:1038C0008C02F0928D02A301920160918A027091A4
:1038D0008B0280918C0290918D020E94D31D0E94D8
:1038E0009E1F6B017C0120E030E040E85FE30E9416
:1038F000621D2B013C01A701960160E070E080E8A9
:103900009FE30E94611D9B01AC01C301B2010E94B3
:10391000D31D6B017C0120E030E040E85FE30E94B2
:10392000CE1D87FD1CC02DEC3CEC47EC52E4C701DA
:10393000B6010E94261F1816C4F48DECC82E8CEC1C
:10394000D82E87ECE82E82E4F82E0FC010928A025F
:1039500010928B0210928C0210928D02B4CFC12C67
:10396000D12C90E8E92E9FE3F92E4090330350903C
:1039700034036090350370903603A301920160E038
:1039800070E080E89FE30E94611D20913703309131
:1039900038034091390350913A030E942B1F6983E9
:1039A0007A838B839C83A7019601C301B2010E9495
:1039B0002B1F9B01AC0169817A818B819C810E94C4
:1039C000621D6B017C01C0923703D0923803E092F4
:1039D0003903F0923A030E944F1542E0409363038B
:1039E000409364038CE090E090935C0380935B03CE
:1039F00090935E0380935D0382EB91E00E947114CB
:103A000030925C0320925B034CE050E050935E03E5
:103A100040935D0341E0C501B4010E94731488EB3B
:103A200091E00E9471148CE090E090935C0380938D
:103A30005B0310935E0300935D038AEB91E00E94A9
:103A4000711430925C0320925B0310935E03009329
:103A50005D032AE037ED43E25CE360918E027091F2
:103A60008F0280919002909191020E94CE1D87FF5B
:103A700013C080EC91E00E9471140E94961240E005
:103A800050E0452B09F43ECC0E94F805882309F448
:103A900039CC0E94000036CC41E0C701B6010E943B
:103AA0007314EBCF8FE291E09093500380934F0318
:103AB00080916E0390916F03009711F00C94BC20DD
:103AC00008955058BB27AA270E94791D0C94EC1E1C
:103AD0000E94DE1E38F00E94E51E20F039F49F3F60
:103AE00019F426F40C94DB1E0EF4E095E7FB0C941D
:103AF000D51EE92F0E94FD1E58F3BA1762077307FF
:103B00008407950720F079F4A6F50C941F1F0EF496
:103B1000E0950B2EBA2FA02D0B01B90190010C01DD
:103B2000CA01A0011124FF27591B99F0593F50F4F5
:103B3000503E68F11A16F040A22F232F342F44274D
:103B4000585FF3CF469537952795A795F040539545
:103B5000C9F77EF41F16BA0B620B730B840BBAF015
:103B60009150A1F0FF0FBB1F661F771F881FC2F780
:103B70000EC0BA0F621F731F841F48F48795779594
:103B80006795B795F7959E3F08F0B0CF9395880F4E
:103B900008F09927EE0F9795879508950E94B11E1A
:103BA00008F481E008950E94E71D0C94EC1E0E9429
:103BB000E51E58F00E94DE1E40F029F45F3F29F018
:103BC0000C94D51E51110C94201F0C94DB1E0E94E6
:103BD000FD1E68F39923B1F3552391F3951B550B03
:103BE000BB27AA2762177307840738F09F5F5F4FD0
:103BF000220F331F441FAA1FA9F335D00E2E3AF00F
:103C0000E0E832D091505040E695001CCAF72BD026
:103C1000FE2F29D0660F771F881FBB1F2617370777
:103C20004807AB07B0E809F0BB0B802DBF01FF27A9
:103C300093585F4F3AF09E3F510578F00C94D51E93
:103C40000C94201F5F3FE4F3983ED4F3869577955C
:103C50006795B795F7959F5FC9F7880F911D969562
:103C6000879597F90895E1E0660F771F881FBB1FBE
:103C7000621773078407BA0720F0621B730B840B6B
:103C8000BA0BEE1F88F7E09508950E94051F88F093
:103C90009F5798F0B92F9927B751B0F0E1F0660F10
:103CA000771F881F991F1AF0BA95C9F714C0B13051
:103CB00091F00E941F1FB1E008950C941F1F672F01
:103CC000782F8827B85F39F0B93FCCF38695779580
:103CD0006795B395D9F73EF4909580957095619569
:103CE0007F4F8F4F9F4F0895E89409C097FB3EF494
:103CF00090958095709561957F4F8F4F9F4F992339
:103D0000A9F0F92F96E9BB279395F69587957795B6
:103D10006795B795F111F8CFFAF4BB0F11F460FF76
:103D20001BC06F5F7F4F8F4F9F4F16C0882311F0CE
:103D300096E911C0772321F09EE8872F762F05C0E2
:103D4000662371F096E8862F70E060E02AF09A957D
:103D5000660F771F881FDAF7880F9695879597F972
:103D60000895990F0008550FAA0BE0E8FEEF16160C
:103D70001706E807F907C0F012161306E407F5075F
:103D800098F0621B730B840B950B39F40A2661F0D3
:103D9000232B242B252B21F408950A2609F4A14076
:103DA000A6958FEF811D811D089597F99F6780E883
:103DB00070E060E008959FEF80EC089500240A947D
:103DC0001616170618060906089500240A941216F6
:103DD0001306140605060895092E0394000C11F429
:103DE000882352F0BB0F40F4BF2B11F460FF04C0D6
:103DF0006F5F7F4F8F4F9F4F089557FD9058440F2F
:103E0000551F59F05F3F71F04795880F97FB991F39
:103E100061F09F3F79F087950895121613061406F6
:103E2000551FF2CF4695F1DF08C016161706180683
:103E3000991FF1CF86957105610508940895E8945E
:103E4000BB2766277727CB0197F908950E94B11EFB
:103E500008F48FEF08950E943E1F0C94EC1E0E9400
:103E6000DE1E38F00E94E51E20F0952311F00C9420
:103E7000D51E0C94DB1E11240C94201F0E94FD1EE5
:103E800070F3959FC1F3950F50E0551F629FF001AD
:103E9000729FBB27F00DB11D639FAA27F00DB11DC6
:103EA000AA1F649F6627B00DA11D661F829F22274F
:103EB000B00DA11D621F739FB00DA11D621F839FD6
:103EC000A00D611D221F749F3327A00D611D231FAC
:103ED000849F600D211D822F762F6A2F11249F57FA
:103EE00050409AF0F1F088234AF0EE0FFF1FBB1FFD
:103EF000661F771F881F91505040A9F79E3F5105BC
:103F000080F00C94D51E0C94201F5F3FE4F3983E84
:103F1000D4F3869577956795B795F795E7959F5F65
:103F2000C1F7FE2B880F911D9695879597F90895F7
:103F300019F416F40C94DB1E0C94E31F0E94051F69
:103F4000B8F39923C9F3B6F39F57550B87FF0E9427
:103F5000F11F0024A0E640EA9001805856959795FD
:103F600028F4805C660F771F881F20F0261737071C
:103F7000480730F4621B730B840B202931294A2B2C
:103F8000A69517940794202531254A2758F7660FE0
:103F9000771F881F20F026173707480730F4620B79
:103FA000730B840B200D311D411DA09581F7B901C4
:103FB000842F9158880F9695879508950E94B11E79
:103FC000880B990B08959F3F31F0915020F487950D
:103FD00077956795B795880F911D9695879597F971
:103FE000089591505040660F771F881FD2F70895AB
:103FF000A1E21A2EAA1BBB1BFD010DC0AA1FBB1FED
:10400000EE1FFF1FA217B307E407F50720F0A21B5E
:10401000B30BE40BF50B661F771F881F991F1A94CB
:1040200069F760957095809590959B01AC01BD01F5
:10403000CF010895EE0FFF1F0590F491E02D099434
:104040000F931F93CF93DF938230910510F482E09A
:1040500090E0E0919103F091920330E020E0B0E035
:10406000A0E0309799F42115310509F44AC0281BC6
:10407000390B24303105D8F58A819B816115710592
:1040800089F1FB0193838283FE0111C0408151813C
:104090000281138148175907E0F04817590799F42E
:1040A000109761F012960C93129713961C93329608
:1040B000CF01DF91CF911F910F910895009391034C
:1040C00010939203F4CF2115310551F04217530795
:1040D00038F0A901DB019A01BD01DF01F801C1CF70
:1040E000EF01F9CF9093920380939103CDCFFE011E
:1040F000E20FF31F81939193225031093983288372
:10410000D7CF20918F0330919003232B41F420913E
:104110000301309104013093900320938F03209189
:104120000101309102012115310541F42DB73EB74F
:104130004091050150910601241B350BE0918F033E
:10414000F0919003E217F307A0F42E1B3F0B281702
:10415000390778F0AC014E5F5F4F2417350748F000
:104160004E0F5F1F5093900340938F038193919361
:104170009FCFF0E0E0E09CCFCF93DF930097E9F092
:10418000FC01329713821282A0919103B0919203A5
:10419000ED0130E020E01097A1F420813181820F01
:1041A000931F20918F03309190032817390709F04E
:1041B00061C0F0939003E0938F03DF91CF91089556
:1041C000EA01CE17DF07E8F54A815B819E014115C0
:1041D0005105B1F7E901FB83EA8349915991C40F75
:1041E000D51FEC17FD0761F4808191810296840F41
:1041F000951FE90199838883828193819B838A83B8
:10420000F0E0E0E012968D919C9113970097B9F53C
:104210002D913C911197CD010296820F931F209111
:104220008F03309190032817390739F6309751F5ED
:104230001092920310929103B0939003A0938F0376
:10424000BCCFD383C28340815181840F951FC8178F
:10425000D90761F44E5F5F4F88819981480F591FDC
:10426000518340838A819B81938382832115310509
:1042700009F0B0CFF0939203E09391039ECFFD013C
:10428000DC01C0CF13821282D7CF81E090E0F89496
:104290000C945121DC0101C06D9341505040E0F776
:1042A000089515E0C1E4D5E004C0FE010E941A2083
:1042B0002196C234D107C9F7F894FFCF01000093CB
:1042C000038000000000002E068E05BB057B06EC77
:1042D00005CA05DE050000000069103C101D148BA6
:1042E000053510221013100000000091098E051DE5
:1042F00014AC0FF20E8B05360C0E0C2A0C1E0C9E05
:104300000C8B055707C713620EAB0E570B3A0BC247
:104310000A630A6E616E00696E66006F7666002041
:104320002020504F5745522F535752204D4554454A
:104330005220202000202020203132205761747428
:1043400073206D6178696D756D20202020004261B9
:10435000747465727920766F6C7473203D20002D23
:104360002D2D2D2D2D2D2D0076312E303600505730
:10437000523A200057005357523A20002A2A2E2A38
:0243800000003B
:107E0000112484B714BE81FFF0D085E080938100F7
:107E100082E08093C00088E18093C10086E0809377
:107E2000C20080E18093C4008EE0C9D0259A86E02C
:107E300020E33CEF91E0309385002093840096BBD3
:107E4000B09BFECF1D9AA8958150A9F7CC24DD24C4
:107E500088248394B5E0AB2EA1E19A2EF3E0BF2EE7
:107E6000A2D0813461F49FD0082FAFD0023811F036
:107E7000013811F484E001C083E08DD089C08234E0
:107E800011F484E103C0853419F485E0A6D080C0E4
:107E9000853579F488D0E82EFF2485D0082F10E0AE
:107EA000102F00270E291F29000F111F8ED06801E7
:107EB0006FC0863521F484E090D080E0DECF843638
:107EC00009F040C070D06FD0082F6DD080E0C81688
:107ED00080E7D80618F4F601B7BEE895C0E0D1E017
:107EE00062D089930C17E1F7F0E0CF16F0E7DF06D8
:107EF00018F0F601B7BEE89568D007B600FCFDCFD4
:107F0000A601A0E0B1E02C9130E011968C91119780
:107F100090E0982F8827822B932B1296FA010C0160
:107F200087BEE89511244E5F5F4FF1E0A038BF0790
:107F300051F7F601A7BEE89507B600FCFDCF97BE46
:107F4000E89526C08437B1F42ED02DD0F82E2BD052
:107F50003CD0F601EF2C8F010F5F1F4F84911BD097
:107F6000EA94F801C1F70894C11CD11CFA94CF0C13
:107F7000D11C0EC0853739F428D08EE10CD085E9AC
:107F80000AD08FE07ACF813511F488E018D01DD067
:107F900080E101D065CF982F8091C00085FFFCCF94
:107FA0009093C60008958091C00087FFFCCF809118
:107FB000C00084FD01C0A8958091C6000895E0E648
:107FC000F0E098E1908380830895EDDF803219F02E
:107FD00088E0F5DFFFCF84E1DECF1F93182FE3DFCA
:107FE0001150E9F7F2DF1F91089580E0E8DFEE27F6
:047FF000FF270994CA
:027FFE00040479
:00000001FF
